:100000000C9462000C948A000C948A000C948A0070
:100010000C948A000C948A000C948A000C948A0038
:100020000C948A000C948A000C948A000C948A0028
:100030000C948A000C948A000C948A000C948A0018
:100040000C9417030C948A000C948A000C948A0078
:100050000C948A000C948A000C948A000C948A00F8
:100060000C948A000C948A000000000024002700F1
:100070002A0000000000250028002B0004040404CE
:100080000404040402020202020203030303030342
:10009000010204081020408001020408102001021F
:1000A00004081020000000080002010000030407FB
:1000B00000000000000000000000000023002600F7
:1000C0002900980611241FBECFEFD8E0DEBFCDBFB8
:1000D00011E0A0E0B1E0EEEBF0E102C005900D927E
:1000E000A630B107D9F721E0A6E0B1E001C01D922A
:1000F000A434B207E1F710E0C2E6D0E004C02197D3
:10010000FE010E945708C136D107C9F70E9461035A
:100110000C945D080C9400008F929F92AF92BF9256
:10012000CF92DF92EF92FF92CF93DF93A0913901AC
:10013000882311F03A2F01C030E080913A0190E01D
:10014000880F991F88549F4FC0903F01D090400165
:10015000E0904101F090420140E050E0BA01FC0122
:10016000C591D49128812A2323130FC04A015B0132
:100170002FEF821A920AA20AB20A4C155D056E058B
:100180007F0538F4B501A401EACF342F252FCB0128
:1001900004C030E020E080E090E0632F722FDF9118
:1001A000CF91FF90EF90DF90CF90BF90AF909F9056
:1001B0008F900895833081F028F4813099F0823057
:1001C000A1F008958730A9F08830B9F08430D1F4D7
:1001D000809180008F7D03C0809180008F77809315
:1001E0008000089584B58F7702C084B58F7D84BD6B
:1001F00008958091B0008F7703C08091B0008F7D0B
:100200008093B0000895CF93DF93282F30E0F90159
:10021000EC55FF4F8491F901E057FF4FD491F9015C
:10022000E458FF4FC491CC2391F081110E94DA0071
:10023000EC2FF0E0EE0FFF1FE854FF4FA591B491B3
:10024000EC91ED2381E090E021F480E002C080E0B9
:1002500090E0DF91CF9108951F93CF93DF93282FE4
:1002600030E0F901EC55FF4F8491F901E057FF4F61
:10027000D491F901E458FF4FC491CC23C9F0162F53
:1002800081110E94DA00EC2FF0E0EE0FFF1FEE5814
:10029000FF4FA591B4918FB7F894111105C09C91AF
:1002A000ED2FE095E92302C0EC91ED2BEC938FBF8D
:1002B000DF91CF911F910895CF93DF9390E0FC01E0
:1002C000E057FF4F2491FC01E458FF4F84918823AD
:1002D00061F190E0880F991FFC01E859FF4FC5912B
:1002E000D491FC01EE58FF4FA591B491611109C062
:1002F0009FB7F8948881209582238883EC912E23E0
:100300000BC0623061F49FB7F8943881822F8095DA
:1003100083238883EC912E2B2C939FBF06C08FB72D
:10032000F894E8812E2B28838FBFDF91CF91089519
:100330003FB7F89480910B0190910C01A0910D01B1
:10034000B0910E0126B5A89B05C02F3F19F001966C
:10035000A11DB11D3FBFBA2FA92F982F8827820F4B
:10036000911DA11DB11DBC01CD0142E0660F771F9B
:10037000881F991F4A95D1F708958F929F92AF9247
:10038000BF92CF92DF92EF92FF926B017C010E94AD
:1003900098014B015C01C114D104E104F104F1F0B6
:1003A0000E949801DC01CB0188199909AA09BB09AF
:1003B000883E9340A105B10570F321E0C21AD1082F
:1003C000E108F10888EE880E83E0981EA11CB11C9C
:1003D000C114D104E104F10419F7DDCFFF90EF90CF
:1003E000DF90CF90BF90AF909F908F9008952FB7E0
:1003F000F894609107017091080180910901909132
:100400000A012FBF0895CF92DF92EF92FF920F93D0
:100410001F93CF93DF93CDB7DEB7C054D1400FB653
:10042000F894DEBF0FBECDBF0E94F70100913B01E3
:1004300010913C0120913D0130913E016B017C0106
:10044000C01AD10AE20AF30A40EDC41647E0D40606
:10045000E104F10418F480914301BCC060933B01B6
:1004600070933C0180933D0190933E0110923601C0
:100470001092350110923401109233011092320122
:1004800061E0809137010E942C016AEF70E080E00A
:1004900090E00E94BD0161E0809137010E945C0103
:1004A00060E0809137010E942C0164E170E080E0FF
:1004B00090E00E94BD01F89461E0809137010E94B4
:1004C0002C018BE990E00197F1F762E08091370110
:1004D0000E945C0183E290E00197F1F780E00E94C6
:1004E0008C00672B682B692B21F4109243017894C0
:1004F0003EC081E00E948C00672B682B692BA9F31A
:100500008E010F5F1F4F6E018FEBC81A8EEFD80A56
:10051000780180E00E948C00F70160837183828300
:10052000938381E00E948C00F70164837583868346
:100530009783F8E0EF0EF11CEC14FD0451F778946A
:1005400020E030E0F8014081518162817381C480F4
:10055000D580E680F780411551056105710529F0C8
:10056000C114D104E104F10421F41092430180E0AC
:1005700031C0F90183E0F595E7958A95E1F7EE5CE6
:10058000FE4F8081880F4C155D056E057F0508F4D0
:10059000816080832F5F3F4F085F1F4F28323105F6
:1005A00089F62091360130E040913201809133018B
:1005B00090E0840F911D40913401840F911D409172
:1005C0003501840F911D99272817390771F681E0AD
:1005D00080934301C05CDE4F0FB6F894DEBF0FBEC0
:1005E000CDBFDF91CF911F910F91FF90EF90DF90E2
:1005F000CF9008950F931F930E94F70100911A0165
:1006000010911B0120911C0130911D01DC01CB01D7
:10061000801B910BA20BB30B21E0893E9340A105F7
:10062000B10508F420E0822F1F910F9108951F92C9
:100630000F920FB60F9211242F933F938F939F9396
:10064000AF93BF938091070190910801A091090198
:10065000B0910A013091060123E0230F2D3720F4D9
:100660000196A11DB11D05C026E8230F0296A11D0C
:10067000B11D209306018093070190930801A09378
:100680000901B0930A0180910B0190910C01A09196
:100690000D01B0910E010196A11DB11D80930B01BA
:1006A00090930C01A0930D01B0930E01BF91AF91F7
:1006B0009F918F913F912F910F900FBE0F901F90A0
:1006C0001895789484B5826084BD84B5816084BDBA
:1006D00085B5826085BD85B5816085BD80916E00E0
:1006E000816080936E001092810080918100826011
:1006F000809381008091810081608093810080914E
:1007000080008160809380008091B100846080933C
:10071000B1008091B00081608093B00080917A0038
:10072000846080937A0080917A00826080937A005E
:1007300080917A00816080937A0080917A0080684D
:1007400080937A001092C10062E0809137010E948C
:100750005C0180E398EFAFEFBFEF80933B01909394
:100760003C01A0933D01B0933E0161E085E00E9411
:100770005C0161E085E00E942C0161E086E00E945E
:100780005C0160E086E00E942C0161E087E00E944D
:100790005C0160E08EE00E945C0160E088E00E9405
:1007A0005C0160E08AE00E945C0160E089E00E94F8
:1007B0005C0161E08FE00E945C0161E080E10E94E9
:1007C0005C0161E081E10E945C016091140181E1C2
:1007D0000E942C0161E082E10E945C0180E4282EED
:1007E0003324339400E010E0C1E0D0E090EEC92E55
:1007F00093E9D92E94E0E92EF12C20EA822E2BEBFE
:10080000922E2DE0A22EB12C0E94F70140901601ED
:10081000509017016090180170901901DC01CB0114
:1008200084199509A609B709883C9105A105B10568
:1008300008F411C120927C0080917A00806480933A
:100840007A0080917A0086FDFCCF8091780020911B
:10085000790090E0922B9C01285E334029323105CB
:1008600018F430920F0118C09C01245F31402F31E1
:10087000310518F4309210010FC09C012A54314008
:100880002932310518F43092130106C08C5D9109AC
:10089000CD9710F4309215010E94F7016093160174
:1008A000709317018093180190931901809115019D
:1008B0008823C9F11092150180911401882331F029
:1008C00010922B0160E081E10E942C011092140132
:1008D00060E081E10E942C0160902B01762C732452
:1008E00070922B01672D8FE00E942C016092050110
:1008F000662D85E00E942C011092040160E086E0E4
:100900000E942C01772069F0309230010E94F7019B
:1009100060932C0170932D0180932E0190932F01F1
:1009200002C01092300180911301882369F1109266
:10093000130180911401882341F01092120110924A
:10094000140160E081E10E942C0170901201732477
:1009500070921201672D80E10E942C011092040117
:1009600060E086E00E942C017092310170921101CA
:1009700071100AC080913001811106C030920501CA
:1009800061E085E00E942C0180911001882309F428
:1009900048C01092100110923001109231018091E4
:1009A0001201811103C080912B0181111092140159
:1009B00010922B0160E08FE00E942C011092120136
:1009C00060E080E10E942C01709014017324709209
:1009D0001401672D81E10E942C013092050161E034
:1009E00085E0772031F00E942C013092040161E013
:1009F00005C00E942C011092040160E086E00E9474
:100A00002C0180911101882361F0809114018111E2
:100A100008C03092120161E080E10E942C01309206
:100A2000310180910F018823B1F010920F01809164
:100A3000230190912401892B31F01092240110920E
:100A400023011092290160912901632560932901F6
:100A500082E10E942C0189E00E940301892B69F444
:100A600080912A01882349F00E94FA02882329F004
:100A700080912901882309F41FC10E94F701409049
:100A80002501509026016090270170902801DC011B
:100A9000CB0184199509A609B70989389341A105A5
:100AA000B10538F08091230190912401892B09F040
:100AB0001AC180912901811175C088E00E9403014B
:100AC000892B29F48AE00E940301892BF9F089E03F
:100AD0000E940301892B71F40E94FA0281110EC158
:100AE0000E94F70160931A0170931B0180931C010F
:100AF00090931D010E94F70160931F0170932001E4
:100B0000809321019093220130922A0185E00E9476
:100B10000301892B49F48092000190920101A09277
:100B20000201B092030108C0C0920001D0920101FD
:100B3000E0920201F09203010E94F70140901F0130
:100B4000509020016090210170902201DC01CB01C6
:100B500084199509A609B709409000015090010138
:100B60006090020170900301481659066A067B06E0
:100B7000C8F480912A018823A9F089E00E9403012A
:100B8000892B71F00E94FA028111C5C00E94F70101
:100B900060931A0170931B0180931C0190931D01B7
:100BA00010922A0180913001882349F10E94F701B7
:100BB00040902C0150902D0160902E0170902F01DB
:100BC000DC01CB0184199509A609B709803C97423D
:100BD000A940B105A0F03092050161E085E00E94D6
:100BE0002C011092040160E086E00E942C0110921A
:100BF0002B0160E08FE00E942C0110923001809167
:100C00003101882309F451C08091300181114DC018
:100C10000E940302882399F1809138018B3039F1C9
:100C200070F18551823058F56091320170E080E0BA
:100C300090E00E945C0720E030E040E853E40E942E
:100C4000EA072B013C016091330170E080E090E005
:100C50000E945E079B01AC01C301B2010E94BA066B
:100C60002DEC3CEC4CEC5DE30E94EA070CC060917B
:100C7000320170E080E090E00E945C0704C060E018
:100C800070E080EC9FE70E9426076734710524F02E
:100C90001092050160E006C06134710534F43092B1
:100CA000050161E085E00E942C010115110509F4A0
:100CB000ABCD0E940000A8CD3092290161E082E115
:100CC0000E942C010E94F701609325017093260178
:100CD0008093270190932801D0932401C09323018E
:100CE00010922A01CACE1092240110922301109270
:100CF000290160E082E10E942C01DBCE87E00E94A6
:100D0000030161E0892B09F060E060931E0187E038
:100D10000E942C01E5CE87E00E94030161E0892B4F
:100D200009F060E060931E0187E00E942C012ECF45
:100D3000A2E3B1E082E015968C93159786E11696B2
:100D40008C931697E2E9F0E0E4911796EC931797ED
:100D5000EEE7F0E0E4911896EC93189740E85EE334
:100D600060E070E01D964D935D936D937C9350977A
:100D700008955058BB27AA270E94D1060C94B007AB
:100D80000E94A20738F00E94A90720F039F49F3F83
:100D900019F426F40C949F070EF4E095E7FB0C94ED
:100DA0009907E92F0E94C10758F3BA176207730722
:100DB0008407950720F079F4A6F50C94E3070EF468
:100DC000E0950B2EBA2FA02D0B01B90190010C015B
:100DD000CA01A0011124FF27591B99F0593F50F473
:100DE000503E68F11A16F040A22F232F342F4427CB
:100DF000585FF3CF469537952795A795F0405395C3
:100E0000C9F77EF41F16BA0B620B730B840BBAF092
:100E10009150A1F0FF0FBB1F661F771F881FC2F7FD
:100E20000EC0BA0F621F731F841F48F48795779511
:100E30006795B795F7959E3F08F0B0CF9395880FCB
:100E400008F09927EE0F9795879508950E942D0732
:100E50006894B1110C94E40708950E94C90788F0C2
:100E60009F5798F0B92F9927B751B0F0E1F0660F6E
:100E7000771F881F991F1AF0BA95C9F714C0B130AF
:100E800091F00E94E307B1E008950C94E307672F07
:100E9000782F8827B85F39F0B93FCCF386957795DE
:100EA0006795B395D9F73EF49095809570956195C7
:100EB0007F4F8F4F9F4F0895E89409C097FB3EF4F2
:100EC00090958095709561957F4F8F4F9F4F992397
:100ED000A9F0F92F96E9BB279395F6958795779515
:100EE0006795B795F111F8CFFAF4BB0F11F460FFD5
:100EF0001BC06F5F7F4F8F4F9F4F16C0882311F02D
:100F000096E911C0772321F09EE8872F762F05C040
:100F1000662371F096E8862F70E060E02AF09A95DB
:100F2000660F771F881FDAF7880F9695879597F9D0
:100F3000089597F99F6780E870E060E008959FEF5B
:100F400080EC089500240A94161617061806090660
:100F5000089500240A94121613061406050608952F
:100F6000092E0394000C11F4882352F0BB0F40F4B7
:100F7000BF2B11F460FF04C06F5F7F4F8F4F9F4FF7
:100F8000089557FD9058440F551F59F05F3F71F079
:100F90004795880F97FB991F61F09F3F79F08795E0
:100FA0000895121613061406551FF2CF4695F1DF69
:100FB00008C0161617061806991FF1CF86957105F9
:100FC000610508940895E894BB2766277727CB012D
:100FD00097F908950E94FD070C94B0070E94A2079C
:100FE00038F00E94A90720F0952311F00C9499077E
:100FF0000C949F0711240C94E4070E94C10770F31E
:10100000959FC1F3950F50E0551F629FF001729FAD
:10101000BB27F00DB11D639FAA27F00DB11DAA1FBC
:10102000649F6627B00DA11D661F829F2227B00D09
:10103000A11D621F739FB00DA11D621F839FA00D94
:10104000611D221F749F3327A00D611D231F849FE4
:10105000600D211D822F762F6A2F11249F5750403B
:101060009AF0F1F088234AF0EE0FFF1FBB1F661FB6
:10107000771F881F91505040A9F79E3F510580F07F
:101080000C9499070C94E4075F3FE4F3983ED4F383
:10109000869577956795B795F795E7959F5FC1F723
:1010A000FE2B880F911D9695879597F90895EE0F61
:0E10B000FF1F0590F491E02D0994F894FFCFF6
:0610BE00E09304000101B3
:107800000C94343C0C94513C0C94513C0C94513CE1
:107810000C94513C0C94513C0C94513C0C94513CB4
:107820000C94513C0C94513C0C94513C0C94513CA4
:107830000C94513C0C94513C0C94513C0C94513C94
:107840000C94513C0C94513C0C94513C0C94513C84
:107850000C94513C0C94513C0C94513C0C94513C74
:107860000C94513C0C94513C11241FBECFEFD8E036
:10787000DEBFCDBF11E0A0E0B1E0ECE9FFE702C060
:1078800005900D92A230B107D9F712E0A2E0B1E065
:1078900001C01D92AD30B107E1F70E942D3D0C945F
:1078A000CC3F0C94003C982F959595959595959582
:1078B000905D8F708A307CF0282F295A8091C0000B
:1078C00085FFFCCF9093C6008091C00085FFFCCF60
:1078D0002093C6000895282F205DF0CF982F809127
:1078E000C00085FFFCCF9093C6000895EF92FF92F1
:1078F0000F931F93EE24FF2487018091C00087FD22
:1079000017C00894E11CF11C011D111D81E4E8164B
:1079100082E4F8068FE0080780E0180770F3E09132
:107920000401F091050109958091C00087FFE9CF1E
:107930008091C6001F910F91FF90EF9008950E94D3
:10794000763C982F8091C00085FFFCCF9093C600B5
:1079500091362CF490330CF09053892F089597555D
:10796000892F08951F930E949F3C182F0E949F3CCF
:107970001295107F810F1F9108951F93182F882350
:1079800021F00E94763C1150E1F71F9108951F935A
:10799000182F0E94763C803249F0809103018F5F5E
:1079A000809303018530C1F01F9108958091C0003C
:1079B00085FFFCCF84E18093C6008091C00085FFE5
:1079C000FCCF1093C6008091C00085FFFCCF80E102
:1079D0008093C6001F910895E0910401F091050184
:1079E00009951F9108950E94763C803241F0809164
:1079F00003018F5F80930301853081F008958091AA
:107A0000C00085FFFCCF84E18093C6008091C00058
:107A100085FFFCCF80E18093C6000895E0910401CA
:107A2000F09105010995089540E951E08823A1F0FE
:107A30002D9A28EE33E0FA013197F1F721503040CA
:107A4000D1F72D9828EE33E0FA013197F1F7215064
:107A50003040D1F7815061F708953F924F925F9285
:107A60006F927F928F929F92AF92BF92CF92DF924E
:107A7000EF92FF920F931F93CF93DF93000080E16B
:107A80008093C4001092C50088E18093C10086E015
:107A90008093C2005098589A259A81E00E94143D24
:107AA00024E1F22E9EE1E92E85E9D82E0FE0C02ECA
:107AB00010E1B12EAA24A394B1E49B2EA6E58A2E50
:107AC000F2E57F2EE0E26E2E79E4572E63E5462E36
:107AD00050E5352E0E94763C8033B1F18133B9F107
:107AE000803409F46FC0813409F476C0823409F41B
:107AF00085C0853409F488C0803531F1823521F1A3
:107B0000813511F1853509F485C0863509F48DC0BC
:107B1000843609F496C0843709F403C1853709F423
:107B200072C1863709F466C0809103018F5F80932C
:107B30000301853079F6E0910401F0910501099582
:107B40000E94763C803351F60E94F33CC3CF0E94E2
:107B5000763C803249F78091C00085FFFCCFF092DF
:107B6000C6008091C00085FFFCCF9092C600809136
:107B7000C00085FFFCCF8092C6008091C00085FFC9
:107B8000FCCF7092C6008091C00085FFFCCF609250
:107B9000C6008091C00085FFFCCF5092C600809146
:107BA000C00085FFFCCF4092C6008091C00085FFD9
:107BB000FCCF3092C6008091C00085FFFCCFB09210
:107BC000C60088CF0E94763C863808F4BDCF0E945C
:107BD000763C0E94F33C7ECF0E94763C803809F4CC
:107BE0009CC0813809F40BC1823809F43CC1883942
:107BF00009F48FC080E00E94C73C6CCF84E10E94F2
:107C0000BD3C0E94F33C66CF85E00E94BD3C0E94D3
:107C1000F33C60CF0E94763C809306010E94763C44
:107C2000809307010E94F33C55CF0E94763C80333D
:107C300009F41DC183E00E94BD3C80E00E94C73C66
:107C400049CF0E94763C809309020E94763C809343
:107C5000080280910C028E7F80930C020E94763C79
:107C6000853409F415C18091080290910902892B8D
:107C700089F000E010E00E94763CF801E85FFE4FDA
:107C800080830F5F1F4F80910802909109020817AF
:107C9000190788F30E94763C803209F045CF809125
:107CA0000C0280FF01C16091060170910701660F0F
:107CB000771F7093070160930601A0910802B091AD
:107CC00009021097C9F0E8E0F1E09B01AD014E0F09
:107CD0005F1FF999FECF32BD21BD819180BDFA9A17
:107CE000F99A2F5F3F4FE417F50799F76A0F7B1F4B
:107CF00070930701609306018091C00085FFFCCF5F
:107D0000F092C6008091C00085FFFCCFB092C60003
:107D1000E1CE83E00E94C73CDDCE82E00E94C73CFA
:107D2000D9CE0E94763C809309020E94763C8093D3
:107D300008028091060190910701880F991F909386
:107D40000701809306010E94763C853409F4A6C0A1
:107D500080910C028E7F80930C020E94763C8032D0
:107D600009F0B8CE8091C00085FFFCCFF092C6002C
:107D7000609108027091090261157105B9F140E046
:107D800050E080910C02A82FA170B82FB27011C0E2
:107D9000BB2309F45CC0E0910601F0910701319624
:107DA000F0930701E09306014F5F5F4F46175707B7
:107DB000E8F4AA2369F3F999FECF209106013091E6
:107DC000070132BD21BDF89A90B58091C00085FFB2
:107DD000FCCF9093C6002F5F3F4F30930701209355
:107DE00006014F5F5F4F4617570718F38091C00099
:107DF00085FDE5CE8091C00085FFF8CFE0CE81E023
:107E00000E94C73C67CE0E94763C803209F08CCE3F
:107E10008091C00085FFFCCFF092C6008091C00029
:107E200085FFFCCFE092C6008091C00085FFFCCFAB
:107E3000D092C6008091C00085FFFCCFC092C600E2
:107E40008091C00085FFFCCFB092C60043CEE09188
:107E50000601F091070194918091C00085FFFCCF4D
:107E60009093C6009CCF80E10E94C73C33CE0E9415
:107E7000763C0E94763C182F0E94763C112309F430
:107E800083C0113009F484C08FE00E94C73C22CE29
:107E900080910C02816080930C02E5CE80910C02EF
:107EA000816080930C0259CF809107018823880F4D
:107EB000880B8A2180930B02809106019091070123
:107EC000880F991F90930701809306018091080203
:107ED00080FF09C080910802909109020196909359
:107EE000090280930802F894F999FECF1127E091D6
:107EF0000601F0910701C8E0D1E08091080290915D
:107F00000902103091F40091570001700130D9F34B
:107F100003E000935700E89500915700017001308D
:107F2000D9F301E100935700E89509901990009169
:107F3000570001700130D9F301E000935700E89534
:107F40001395103498F011270091570001700130FB
:107F5000D9F305E000935700E895009157000170B0
:107F60000130D9F301E100935700E895329602976A
:107F700009F0C7CF103011F00296E5CF112480919F
:107F8000C00085FFB9CEBCCE8EE10E94C73CA2CD19
:0C7F900085E90E94C73C9ECDF894FFCF0D
:027F9C00800063
:040000030000780081
:00000001FF