:100000000C9462000C948A000C948A000C948A0070
:100010000C948A000C948A000C948A000C948A0038
:100020000C948A000C948A000C948A000C948A0028
:100030000C948A000C948A000C948A000C948A0018
:100040000C94F7040C948A000C94C5040C949F043F
:100050000C948A000C948A000C948A000C948A00F8
:100060000C948A000C948A000000000024002700F1
:100070002A0000000000250028002B0000000008D6
:10008000000201000003040700000000000000005F
:1000900000000000230026002900040404040404D6
:1000A0000404020202020202030303030303010227
:1000B00004081020408001020408102001020408F6
:1000C0001020410511241FBECFEFD8E0DEBFCDBF09
:1000D00011E0A0E0B1E0ECE6F6E102C005900D927F
:1000E000AA32B107D9F722E0AAE2B1E001C01D921D
:1000F000A930B207E1F710E0C2E6D0E004C02197D2
:10010000FE010E94290BC136D107C9F70E948E0556
:100110000C94340B0C9400008F929F92AF92BF927C
:10012000CF92DF92EF92FF92CF93DF93A091FE01E7
:10013000882311F03A2F01C030E08091FF0190E058
:10014000880F991F80579F4FC0900402D0900502DE
:10015000E0900602F090070240E050E0BA01FC0196
:10016000C591D49128812A2323130FC04A015B0132
:100170002FEF821A920AA20AB20A4C155D056E058B
:100180007F0538F4B501A401EACF342F252FCB0128
:1001900004C030E020E080E090E0632F722FDF9118
:1001A000CF91FF90EF90DF90CF90BF90AF909F9056
:1001B0008F900895CF92DF92EF92FF920F931F934B
:1001C000CF93DF936C017A018B01C0E0D0E0CE15B4
:1001D000DF0589F0D8016D918D01D601ED91FC917B
:1001E0000190F081E02DC6010995892B11F47E0163
:1001F00002C02196ECCFC701DF91CF911F910F91E3
:10020000FF90EF90DF90CF900895089580E090E008
:100210000895FC01538D448D252F30E0842F90E00C
:10022000821B930B541710F0CF96089501970895F1
:10023000FC01918D828D981761F0828DDF01A80FEE
:10024000B11D5D968C91928D9F5F9F73928F90E010
:1002500008958FEF9FEF0895FC01918D828D98177F
:1002600031F0828DE80FF11D858D90E008958FEFBC
:100270009FEF0895FC01918D228D892F90E0805C85
:100280009F4F821B91098F73992708958AE591E00A
:100290000E943A0121E0892B09F420E0822F089581
:1002A000FC01848DDF01A80FB11DA35ABF4F2C9113
:1002B000848D90E001968F739927848FA689B789E2
:1002C0002C93A089B1898C9180648C93938D848DBB
:1002D000981306C00288F389E02D80818F7D80838A
:1002E0000895EF92FF920F931F93CF93DF93EC014A
:1002F00081E0888F9B8D8C8D981305C0E889F989E2
:10030000808185FD24C0F62E0B8D10E00F5F1F4FFE
:100310000F731127E02E8C8DE8120CC00FB607FC6E
:10032000FACFE889F989808185FFF5CFCE010E9457
:100330005001F1CF8B8DFE01E80FF11DE35AFF4F05
:10034000F0820B8FEA89FB898081806207C0EE8989
:10035000FF896083E889F98980818064808381E0F6
:1003600090E0DF91CF911F910F91FF90EF90089552
:10037000CF93DF93EC01888D8823C9F0EA89FB894C
:10038000808185FD05C0A889B9898C9186FD0FC043
:100390000FB607FCF5CF808185FFF2CFA889B98918
:1003A0008C9185FFEDCFCE010E945001E7CFDF9108
:1003B000CF91089580E090E0892B29F00E944601BA
:1003C00081110C9400000895833081F028F481306D
:1003D00099F08230A1F008958730A9F08830B9F003
:1003E0008430D1F4809180008F7D03C080918000A3
:1003F0008F7780938000089584B58F7702C084B58D
:100400008F7D84BD08958091B0008F7703C0809167
:10041000B0008F7D8093B0000895CF93DF93282F95
:1004200030E0F901E458FF4F8491F901E255FF4FA4
:10043000D491F901E656FF4FC491CC2391F081117C
:100440000E94E401EC2FF0E0EE0FFF1FE057FF4F9A
:10045000A591B491EC91ED2381E090E021F480E04E
:1004600002C080E090E0DF91CF9108951F93CF9379
:10047000DF93282F30E0F901E458FF4F8491F90110
:10048000E255FF4FD491F901E656FF4FC491CC23BA
:10049000C9F0162F81110E94E401EC2FF0E0EE0F5D
:1004A000FF1FEE58FF4FA591B4918FB7F89411112B
:1004B00005C09C91ED2FE095E92302C0EC91ED2B56
:1004C000EC938FBFDF91CF911F910895CF93DF936E
:1004D00090E0FC01E255FF4F2491FC01E656FF4FEE
:1004E0008491882361F190E0880F991FFC01E859FD
:1004F000FF4FC591D491FC01EE58FF4FA591B491E7
:10050000611109C09FB7F894888120958223888360
:10051000EC912E230BC0623061F49FB7F8943881C0
:10052000822F809583238883EC912E2B2C939FBF61
:1005300006C08FB7F894E8812E2B28838FBFDF91F8
:10054000CF9108953FB7F89480912F019091300199
:10055000A0913101B091320126B5A89B05C02F3F73
:1005600019F00196A11DB11D3FBFBA2FA92F982FD9
:100570008827820F911DA11DB11DBC01CD0142E054
:10058000660F771F881F991F4A95D1F708958F929C
:100590009F92AF92BF92CF92DF92EF92FF926B0148
:1005A0007C010E94A2024B015C01C114D104E10450
:1005B000F104F1F00E94A202DC01CB018819990933
:1005C000AA09BB09883E9340A105B10570F321E05B
:1005D000C21AD108E108F10888EE880E83E0981E5F
:1005E000A11CB11CC114D104E104F10419F7DDCF41
:1005F000FF90EF90DF90CF90BF90AF909F908F9043
:1006000008952FB7F89460912B0170912C0180917F
:100610002D0190912E012FBF0895CF92DF92EF927E
:10062000FF920F931F93CF93DF93CDB7DEB7C054E4
:10063000D1400FB6F894DEBF0FBECDBF0E940103BC
:1006400000910002109101022091020230910302F8
:100650006B017C01C01AD10AE20AF30A40EDC4160C
:1006600047E0D406E104F10418F480910802BCC00C
:100670006093000270930102809302029093030240
:100680001092FB011092FA011092F9011092F801F8
:100690001092F70161E08091FC010E9436026AEF3E
:1006A00070E080E090E00E94C70261E08091FC0170
:1006B0000E94660260E08091FC010E94360264E1C3
:1006C00070E080E090E00E94C702F89461E08091C1
:1006D000FC010E9436028BE990E00197F1F762E09D
:1006E0008091FC010E94660283E290E00197F1F79D
:1006F00080E00E948C00672B682B692B21F41092FC
:10070000080278943EC081E00E948C00672B682B21
:10071000692BA9F38E010F5F1F4F6E018FEBC81A73
:100720008EEFD80A780180E00E948C00F701608388
:1007300071838283938381E00E948C00F70164833C
:10074000758386839783F8E0EF0EF11CEC14FD04AB
:1007500051F7789420E030E0F801408151816281C6
:100760007381C480D580E680F7804115510561050D
:10077000710529F0C114D104E104F10421F41092AF
:10078000080280E031C0F90183E0F595E7958A958C
:10079000E1F7E950FE4F8081880F4C155D056E052D
:1007A0007F0508F4816080832F5F3F4F085F1F4FF4
:1007B0002832310589F62091FB0130E04091F701A4
:1007C0008091F80190E0840F911D4091F901840F10
:1007D000911D4091FA01840F911D9927281739071F
:1007E00071F681E080930802C05CDE4F0FB6F8948A
:1007F000DEBF0FBECDBFDF91CF911F910F91FF9054
:10080000EF90DF90CF9008950F931F930E94010304
:100810000091410110914201209143013091440126
:10082000DC01CB01801B910BA20BB30B21E030E06C
:10083000893E9340A105B10510F420E030E0C901E4
:100840001F910F910895009769F0FC01019000201D
:10085000E9F73197AF01481B590BBC018AE591E0DC
:100860000C94DA0080E090E008958F929F92AF920E
:10087000BF920F931F93CF93DF93CDB7DEB7A197AE
:100880000FB6F894DEBF0FBECDBF19A2423008F4F8
:100890004AE08E010F5D1F4F842E912CA12CB12CAC
:1008A000A50194010E94070BE62FB901CA0101506E
:1008B0001109EA3014F4E05D01C0E95CD801EC9361
:1008C000232B242B252B61F7C8010E942304A1961A
:1008D0000FB6F894DEBF0FBECDBFDF91CF911F9151
:1008E0000F91BF90AF909F908F900895CF92DF921D
:1008F000EF92FF92CF93DF936B017C01E0915A015D
:10090000F0915B010190F081E02D6DE28AE591E0CC
:100910000995EC0166277727CB016C197D098E09B3
:100920009F094AE00E9435048C0F9D1FDF91CF91F3
:10093000FF90EF90DF90CF9008950E942F0B1F92B1
:100940000F920FB60F9211242F933F934F935F9303
:100950006F937F938F939F93AF93BF93EF93FF9387
:100960008AE591E00E945001FF91EF91BF91AF9114
:100970009F918F917F916F915F914F913F912F91B7
:100980000F900FBE0F901F9018951F920F920FB6E9
:100990000F9211242F938F939F93EF93FF93E091E6
:1009A0006A01F0916B018081E0917001F091710119
:1009B00082FD12C09081809173018F5F8F732091AF
:1009C0007401821751F0E0917301F0E0E65AFE4F96
:1009D000958F8093730101C08081FF91EF919F916A
:1009E0008F912F910F900FBE0F901F9018951F920F
:1009F0000F920FB60F9211242F933F938F939F93D3
:100A0000AF93BF9380912B0190912C01A0912D0168
:100A1000B0912E0130912A0123E0230F2D3720F4CD
:100A20000196A11DB11D05C026E8230F0296A11D48
:100A3000B11D20932A0180932B0190932C01A09348
:100A40002D01B0932E0180912F0190913001A09142
:100A50003101B09132010196A11DB11D80932F018A
:100A600090933001A0933101B0933201BF91AF91C7
:100A70009F918F913F912F910F900FBE0F901F90DC
:100A80001895EAE5F1E01382128288EE93E0A0E087
:100A9000B0E084839583A683B7838CE091E0918353
:100AA000808385EC90E09587848784EC90E097873D
:100AB000868780EC90E0918B808B81EC90E0938B2B
:100AC000828B82EC90E0958B848B86EC90E0978B08
:100AD000868B118E128E138E148EA7EFB1E082E0FA
:100AE00015968C93159786E116968C931697E0EBE6
:100AF000F0E0E4911796EC931797ECE9F0E0E491BD
:100B00001896EC93189740E85EE360E070E01D965D
:100B10004D935D936D937C9350970895789484B52D
:100B2000826084BD84B5816084BD85B5826085BDE9
:100B300085B5816085BD80916E00816080936E0077
:100B40001092810080918100826080938100809169
:100B5000810081608093810080918000816080931A
:100B600080008091B10084608093B1008091B000DA
:100B700081608093B00080917A00846080937A00D5
:100B800080917A00826080937A0080917A008160FF
:100B900080937A0080917A00806880937A00109226
:100BA000C100E0916A01F0916B0182E08083E091E5
:100BB0006601F09167011082E0916801F09169018E
:100BC0008FEC808310927201E0916E01F0916F01C1
:100BD00086E08083E0916C01F0916D0180818061FD
:100BE0008083E0916C01F0916D0180818860808349
:100BF000E0916C01F0916D01808180688083E091CB
:100C00006C01F0916D0180818F7D808362E0809125
:100C1000FC010E94660280E398EFAFEFBFEF809384
:100C2000000290930102A0930202B093030261E0DC
:100C300085E00E94660261E085E00E94360261E084
:100C400086E00E94660260E086E00E94360261E073
:100C500087E00E94660260E08EE00E94660260E02B
:100C600089E00E94660261E08FE00E94660261E016
:100C700080E10E94660261E081E10E94660260916B
:100C80003A0181E10E94360261E082E10E9466023F
:100C9000D0E4C1E022242394312C90E2892E9FEBF2
:100CA000992E92E0A92EB12C20EA422E2BEB522E47
:100CB0002DE0622E712CD0937C0080917A008064AC
:100CC00080937A0080917A0086FDFCCF00917800B5
:100CD0008091790010E0182BB801012E000C880BD0
:100CE000990B17FF03C00E94760403C04AE00E94DC
:100CF00035048AE191E00E942304C801855F934096
:100D00000C9718F4C093350102C010923501C80148
:100D1000855F9140459718F4C093360102C0109248
:100D20003601C8018A549140459718F4C09339019F
:100D300002C010923901C801805F91094F9708F0F5
:100D400045C080910001909101010817190724F412
:100D500010930101009300018091330190913401BF
:100D60008017910724F410933401009333018DE12F
:100D700091E00E9423046091330170913401072EA9
:100D8000000C880B990B97FF03C00E94760403C0E8
:100D90004AE00E94350483E291E00E9423046091BE
:100DA000000170910101072E000C880B990B97FF31
:100DB00003C00E94760403C04AE00E9435048AE121
:100DC00091E00E942304C0933F0102C010923F01B2
:100DD0000E94010300913B0110913C0120913D01D3
:100DE00030913E01DC01CB01801B910BA20BB30BB8
:100DF00001E0883C9105A105B10508F400E00093ED
:100E0000400180913F01882309F444C0002309F484
:100E100041C00E94010360933B0170933C018093A9
:100E20003D0190933E0180913A01882331F0109268
:100E3000530160E081E10E94360210923A0160E0C5
:100E400081E10E943602D09053011D2D1C27109382
:100E50005301612F8FE00E943602D09207016D2D61
:100E600085E00E9436021092060160E086E00E9452
:100E70003602112369F0C09358010E940103609368
:100E8000540170935501809356019093570102C00D
:100E900010925801809139018823B9F10023A9F1FA
:100EA0000E94010360933B0170933C0180933D01DC
:100EB00090933E0180913A01882341F010923801CD
:100EC00010923A0160E081E10E94360210913801EF
:100ED0001C2710933801612F80E10E943602109286
:100EE000060160E086E00E943602109359011093DB
:100EF000370111110AC080915801811106C0C093B9
:100F0000070161E085E00E94360280913601882366
:100F100009F453C0002309F450C00E9401036093F8
:100F20003B0170933C0180933D0190933E011092F0
:100F300058011092590180913801811103C08091AC
:100F40005301811110923A011092530160E08FE039
:100F50000E9436021092380160E080E10E94360261
:100F600010913A011C2710933A01612F81E10E94F0
:100F70003602C093070161E085E0112331F00E9441
:100F80003602C093060161E005C00E94360210924D
:100F9000060160E086E00E943602809137018823D6
:100FA00061F080913A01811108C0C093380161E07D
:100FB00080E10E943602C093590180913501882357
:100FC00011F1809140018823F1F00E9401036093A8
:100FD0003B0170933C0180933D0190933E018091D1
:100FE0004A0190914B01892B31F010924B011092E4
:100FF0004A0110925001609150016C27609350019A
:1010000082E10E94360289E00E940D02892B69F478
:1010100080915101882349F00E940404892B29F012
:1010200080915001882309F425C10E940103009199
:101030004C0110914D0120914E0130914F01DC0186
:10104000CB01801B910BA20BB30B89389341A105F7
:10105000B10538F080914A0190914B01892B09F03C
:1010600020C18091500181117DC088E00E940D0255
:10107000892B59F189E00E940D02892BD1F40E943D
:101080000404892B61F087E00E940D0261E0892B46
:1010900009F060E06093450187E00E9436020E94FB
:1010A0000103609341017093420180934301909347
:1010B00044010E94010360934601709347018093AD
:1010C000480190934901C093510185E00E940D02AF
:1010D000892B49F44092020150920301609204016D
:1010E0007092050108C08092020190920301A092C3
:1010F0000401B09205010E94010300914601109184
:1011000047012091480130914901DC01CB01801B4E
:10111000910BA20BB30B00910201109103012091DE
:10112000040130910501081719072A073B07D0F47D
:10113000809151018823B1F089E00E940D02892B32
:1011400079F00E940404892B09F0B6C00E940103C3
:101150006093410170934201809343019093440155
:101160001092510180915801882359F10E94010386
:101170000091540110915501209156013091570171
:10118000DC01CB01801B910BA20BB30B80329F4B78
:10119000A240B105B0F0C093070161E085E00E9474
:1011A00036021092060160E086E00E94360210923C
:1011B000530160E08FE00E94360210925801C09304
:1011C000520180915901882309F451C0809158013E
:1011D00081114DC00E940D03882399F18091FD017A
:1011E0008B3039F170F18551823058F56091F701FB
:1011F00070E080E090E00E940C0A20E030E040E8DF
:1012000053E40E949A0A6B017C016091F80170E03E
:1012100080E090E00E940E0A9B01AC01C701B6017C
:101220000E946A092DEC3CEC4CEC5DE30E949A0AAA
:101230000CC06091F70170E080E090E00E940C0A21
:1012400004C060E070E080EC9FE70E94D60967343C
:10125000710524F01092070160E006C06134710549
:1012600034F4C093070161E085E00E9436020E94D9
:10127000DA0121CDC093500161E082E10E94360283
:101280000E94010360934C0170934D0180934E01C5
:1012900090934F0130924B0120924A0110925101DC
:1012A000C4CE10924B0110924A011092500160E09E
:1012B00082E10E943602D5CE87E00E940D0261E0F5
:1012C000892B09F060E06093450187E00E943602B7
:1012D0003DCF5058BB27AA270E9481090C94600A71
:1012E0000E94520A38F00E94590A20F039F49F3FB8
:1012F00019F426F40C944F0A0EF4E095E7FB0C94D5
:10130000490AE92F0E94710A58F3BA176207730756
:101310008407950720F079F4A6F50C94930A0EF44F
:10132000E0950B2EBA2FA02D0B01B90190010C01F5
:10133000CA01A0011124FF27591B99F0593F50F40D
:10134000503E68F11A16F040A22F232F342F442765
:10135000585FF3CF469537952795A795F04053955D
:10136000C9F77EF41F16BA0B620B730B840BBAF02D
:101370009150A1F0FF0FBB1F661F771F881FC2F798
:101380000EC0BA0F621F731F841F48F487957795AC
:101390006795B795F7959E3F08F0B0CF9395880F66
:1013A00008F09927EE0F9795879508950E94DD091B
:1013B0006894B1110C94940A08950E94790A88F0F7
:1013C0009F5798F0B92F9927B751B0F0E1F0660F09
:1013D000771F881F991F1AF0BA95C9F714C0B1304A
:1013E00091F00E94930AB1E008950C94930A672F3C
:1013F000782F8827B85F39F0B93FCCF38695779579
:101400006795B395D9F73EF4909580957095619561
:101410007F4F8F4F9F4F0895E89409C097FB3EF48C
:1014200090958095709561957F4F8F4F9F4F992331
:10143000A9F0F92F96E9BB279395F69587957795AF
:101440006795B795F111F8CFFAF4BB0F11F460FF6F
:101450001BC06F5F7F4F8F4F9F4F16C0882311F0C7
:1014600096E911C0772321F09EE8872F762F05C0DB
:10147000662371F096E8862F70E060E02AF09A9576
:10148000660F771F881FDAF7880F9695879597F96B
:10149000089597F99F6780E870E060E008959FEFF6
:1014A00080EC089500240A941616170618060906FB
:1014B000089500240A9412161306140605060895CA
:1014C000092E0394000C11F4882352F0BB0F40F452
:1014D000BF2B11F460FF04C06F5F7F4F8F4F9F4F92
:1014E000089557FD9058440F551F59F05F3F71F014
:1014F0004795880F97FB991F61F09F3F79F087957B
:101500000895121613061406551FF2CF4695F1DF03
:1015100008C0161617061806991FF1CF8695710593
:10152000610508940895E894BB2766277727CB01C7
:1015300097F908950E94AD0A0C94600A0E94520A1D
:1015400038F00E94590A20F0952311F00C94490AB2
:101550000C944F0A11240C94940A0E94710A70F39F
:10156000959FC1F3950F50E0551F629FF001729F48
:10157000BB27F00DB11D639FAA27F00DB11DAA1F57
:10158000649F6627B00DA11D661F829F2227B00DA4
:10159000A11D621F739FB00DA11D621F839FA00D2F
:1015A000611D221F749F3327A00D611D231F849F7F
:1015B000600D211D822F762F6A2F11249F575040D6
:1015C0009AF0F1F088234AF0EE0FFF1FBB1F661F51
:1015D000771F881F91505040A9F79E3F510580F01A
:1015E0000C94490A0C94940A5F3FE4F3983ED4F3B8
:1015F000869577956795B795F795E7959F5FC1F7BE
:10160000FE2B880F911D9695879597F90895A1E275
:101610001A2EAA1BBB1BFD010DC0AA1FBB1FEE1F6C
:10162000FF1FA217B307E407F50720F0A21BB30BB7
:10163000E40BF50B661F771F881F991F1A9469F733
:1016400060957095809590959B01AC01BD01CF018F
:101650000895EE0FFF1F0590F491E02D099481E0AD
:0C16600090E0F8940C94340BF894FFCF49
:10166C00D00760EA00000101000000007101DA00FF
:10167C000901B8013A0118012C010D0A004D6178DD
:0A168C003D2000204D696E3D200056
:00000001FF
