:100000000C9462000C948A000C948A000C948A0070
:100010000C948A000C948A000C948A000C948A0038
:100020000C948A000C948A000C948A000C948A0028
:100030000C948A000C948A000C948A000C948A0018
:100040000C94CE040C948A000C949C040C947604BA
:100050000C948A000C948A000C948A000C948A00F8
:100060000C948A000C948A000000000024002700F1
:100070002A0000000000250028002B0000000008D6
:10008000000201000003040700000000000000005F
:1000900000000000230026002900040404040404D6
:1000A0000404020202020202030303030303010227
:1000B00004081020408001020408102001020408F6
:1000C0001020180511241FBECFEFD8E0DEBFCDBF32
:1000D00011E0A0E0B1E0E0EEF5E102C005900D9284
:1000E000AC31B107D9F721E0ACE1B1E001C01D921C
:1000F000A93FB207E1F710E0C2E6D0E004C02197C3
:10010000FE010E94E30AC136D107C9F70E946505C6
:100110000C94EE0A0C9400008F929F92AF92BF92C3
:10012000CF92DF92EF92FF92CF93DF93A091EE01F7
:10013000882311F03A2F01C030E08091EF0190E068
:10014000880F991F80579F4FC090F401D090F50100
:10015000E090F601F090F70140E050E0BA01FC01B8
:10016000C591D49128812A2323130FC04A015B0132
:100170002FEF821A920AA20AB20A4C155D056E058B
:100180007F0538F4B501A401EACF342F252FCB0128
:1001900004C030E020E080E090E0632F722FDF9118
:1001A000CF91FF90EF90DF90CF90BF90AF909F9056
:1001B0008F900895CF92DF92EF92FF920F931F934B
:1001C000CF93DF936C017A018B01C0E0D0E0CE15B4
:1001D000DF0589F0D8016D918D01D601ED91FC917B
:1001E0000190F081E02DC6010995892B11F47E0163
:1001F00002C02196ECCFC701DF91CF911F910F91E3
:10020000FF90EF90DF90CF900895089580E090E008
:100210000895FC01538D448D252F30E0842F90E00C
:10022000821B930B541710F0CF96089501970895F1
:10023000FC01918D828D981761F0828DDF01A80FEE
:10024000B11D5D968C91928D9F5F9F73928F90E010
:1002500008958FEF9FEF0895FC01918D828D98177F
:1002600031F0828DE80FF11D858D90E008958FEFBC
:100270009FEF0895FC01918D228D892F90E0805C85
:100280009F4F821B91098F73992708958AE491E00B
:100290000E943A0121E0892B09F420E0822F089581
:1002A000FC01848DDF01A80FB11DA35ABF4F2C9113
:1002B000848D90E001968F739927848FA689B789E2
:1002C0002C93A089B1898C9180648C93938D848DBB
:1002D000981306C00288F389E02D80818F7D80838A
:1002E0000895EF92FF920F931F93CF93DF93EC014A
:1002F00081E0888F9B8D8C8D981305C0E889F989E2
:10030000808185FD24C0F62E0B8D10E00F5F1F4FFE
:100310000F731127E02E8C8DE8120CC00FB607FC6E
:10032000FACFE889F989808185FFF5CFCE010E9457
:100330005001F1CF8B8DFE01E80FF11DE35AFF4F05
:10034000F0820B8FEA89FB898081806207C0EE8989
:10035000FF896083E889F98980818064808381E0F6
:1003600090E0DF91CF911F910F91FF90EF90089552
:10037000CF93DF93EC01888D8823C9F0EA89FB894C
:10038000808185FD05C0A889B9898C9186FD0FC043
:100390000FB607FCF5CF808185FFF2CFA889B98918
:1003A0008C9185FFEDCFCE010E945001E7CFDF9108
:1003B000CF91089580E090E0892B29F00E944601BA
:1003C00081110C9400000895833081F028F481306D
:1003D00099F08230A1F008958730A9F08830B9F003
:1003E0008430D1F4809180008F7D03C080918000A3
:1003F0008F7780938000089584B58F7702C084B58D
:100400008F7D84BD08958091B0008F7703C0809167
:10041000B0008F7D8093B0000895CF93DF93282F95
:1004200030E0F901E458FF4F8491F901E255FF4FA4
:10043000D491F901E656FF4FC491CC2391F081117C
:100440000E94E401EC2FF0E0EE0FFF1FE057FF4F9A
:10045000A591B491EC91ED2381E090E021F480E04E
:1004600002C080E090E0DF91CF9108951F93CF9379
:10047000DF93282F30E0F901E458FF4F8491F90110
:10048000E255FF4FD491F901E656FF4FC491CC23BA
:10049000C9F0162F81110E94E401EC2FF0E0EE0F5D
:1004A000FF1FEE58FF4FA591B4918FB7F89411112B
:1004B00005C09C91ED2FE095E92302C0EC91ED2B56
:1004C000EC938FBFDF91CF911F910895CF93DF936E
:1004D00090E0FC01E255FF4F2491FC01E656FF4FEE
:1004E0008491882361F190E0880F991FFC01E859FD
:1004F000FF4FC591D491FC01EE58FF4FA591B491E7
:10050000611109C09FB7F894888120958223888360
:10051000EC912E230BC0623061F49FB7F8943881C0
:10052000822F809583238883EC912E2B2C939FBF61
:1005300006C08FB7F894E8812E2B28838FBFDF91F8
:10054000CF9108953FB7F8948091210190912201B5
:10055000A0912301B091240126B5A89B05C02F3F8F
:1005600019F00196A11DB11D3FBFBA2FA92F982FD9
:100570008827820F911DA11DB11DBC01CD0142E054
:10058000660F771F881F991F4A95D1F708958F929C
:100590009F92AF92BF92CF92DF92EF92FF926B0148
:1005A0007C010E94A2024B015C01C114D104E10450
:1005B000F104F1F00E94A202DC01CB018819990933
:1005C000AA09BB09883E9340A105B10570F321E05B
:1005D000C21AD108E108F10888EE880E83E0981E5F
:1005E000A11CB11CC114D104E104F10419F7DDCF41
:1005F000FF90EF90DF90CF90BF90AF909F908F9043
:1006000008952FB7F89460911D0170911E0180919B
:100610001F01909120012FBF0895CF92DF92EF929A
:10062000FF920F931F93CF93DF93CDB7DEB7C054E4
:10063000D1400FB6F894DEBF0FBECDBF0E940103BC
:100640000091F0011091F1012091F2013091F3013C
:100650006B017C01C01AD10AE20AF30A40EDC4160C
:1006600047E0D406E104F10418F48091F801BCC01D
:100670006093F0017093F1018093F2019093F30184
:100680001092EB011092EA011092E9011092E80138
:100690001092E70161E08091EC010E9436026AEF5E
:1006A00070E080E090E00E94C70261E08091EC0180
:1006B0000E94660260E08091EC010E94360264E1D3
:1006C00070E080E090E00E94C702F89461E08091C1
:1006D000EC010E9436028BE990E00197F1F762E0AD
:1006E0008091EC010E94660283E290E00197F1F7AD
:1006F00080E00E948C00672B682B692B21F41092FC
:10070000F80178943EC081E00E948C00672B682B32
:10071000692BA9F38E010F5F1F4F6E018FEBC81A73
:100720008EEFD80A780180E00E948C00F701608388
:1007300071838283938381E00E948C00F70164833C
:10074000758386839783F8E0EF0EF11CEC14FD04AB
:1007500051F7789420E030E0F801408151816281C6
:100760007381C480D580E680F7804115510561050D
:10077000710529F0C114D104E104F10421F41092AF
:10078000F80180E031C0F90183E0F595E7958A959D
:10079000E1F7E951FE4F8081880F4C155D056E052C
:1007A0007F0508F4816080832F5F3F4F085F1F4FF4
:1007B0002832310589F62091EB0130E04091E701C4
:1007C0008091E80190E0840F911D4091E901840F30
:1007D000911D4091EA01840F911D9927281739072F
:1007E00071F681E08093F801C05CDE4F0FB6F8949B
:1007F000DEBF0FBECDBFDF91CF911F910F91FF9054
:10080000EF90DF90CF9008950F931F930E94010304
:100810000091310110913201209133013091340166
:10082000DC01CB01801B910BA20BB30B21E030E06C
:10083000893E9340A105B10510F420E030E0C901E4
:100840001F910F9108958F929F92AF92BF920F9335
:100850001F93CF93DF93CDB7DEB7A1970FB6F89470
:10086000DEBF0FBECDBF19A2423008F44AE08E01B0
:100870000F5D1F4F842E912CA12CB12CA50194014A
:100880000E94C10AE62FB901CA0101501109EA30DC
:1008900014F4E05D01C0E95CD801EC93232B242B18
:1008A000252B61F70115110571F0F8010190002069
:1008B000E9F73197AF01401B510BB8018AE491E091
:1008C0000E94DA0002C080E090E0A1960FB6F89492
:1008D000DEBF0FBECDBFDF91CF911F910F91BF90B3
:1008E000AF909F908F9008950E94E90A1F920F92F7
:1008F0000FB60F9211242F933F934F935F936F93F3
:100900007F938F939F93AF93BF93EF93FF938AE46B
:1009100091E00E945001FF91EF91BF91AF919F91A3
:100920008F917F916F915F914F913F912F910F9098
:100930000FBE0F901F9018951F920F920FB60F9237
:1009400011242F938F939F93EF93FF93E0915A017C
:10095000F0915B018081E0916001F091610182FD85
:1009600012C09081809163018F5F8F732091640129
:10097000821751F0E0916301F0E0E65BFE4F958F46
:100980008093630101C08081FF91EF919F918F91CE
:100990002F910F900FBE0F901F9018951F920F92DE
:1009A0000FB60F9211242F933F938F939F93AF9382
:1009B000BF9380911D0190911E01A0911F01B091E4
:1009C000200130911C0123E0230F2D3720F40196E4
:1009D000A11DB11D05C026E8230F0296A11DB11D62
:1009E00020931C0180931D0190931E01A0931F0171
:1009F000B09320018091210190912201A0912301C7
:100A0000B09124010196A11DB11D80932101909305
:100A10002201A0932301B0932401BF91AF919F9134
:100A20008F913F912F910F900FBE0F901F901895AF
:100A3000EAE4F1E01382128288EE93E0A0E0B0E0F5
:100A400084839583A683B7838AE091E09183808332
:100A500085EC90E09587848784EC90E09787868783
:100A600080EC90E0918B808B81EC90E0938B828B7B
:100A700082EC90E0958B848B86EC90E0978B868B54
:100A8000118E128E138E148EA7EEB1E082E01596B1
:100A90008C93159786E116968C931697E0EBF0E011
:100AA000E4911796EC931797ECE9F0E0E49118962F
:100AB000EC93189740E85EE360E070E01D964D937C
:100AC0005D936D937C9350970895789484B582607C
:100AD00084BD84B5816084BD85B5826085BD85B5E2
:100AE000816085BD80916E00816080936E00109260
:100AF00081008091810082608093810080918100DB
:100B0000816080938100809180008160809380006B
:100B10008091B10084608093B1008091B0008160C9
:100B20008093B00080917A00846080937A008091F5
:100B30007A00826080937A0080917A00816080934D
:100B40007A0080917A00806880937A001092C100C8
:100B5000E0915A01F0915B0182E08083E0915601BF
:100B6000F09157011082E0915801F09159018FECFA
:100B7000808310926201E0915E01F0915F0186E056
:100B80008083E0915C01F0915D01808180618083D0
:100B9000E0915C01F0915D01808188608083E0914B
:100BA0005C01F0915D01808180688083E0915C014F
:100BB000F0915D0180818F7D808362E08091EC0106
:100BC0000E94660280E398EFAFEFBFEF8093F001E1
:100BD0009093F101A093F201B093F30161E085E0FD
:100BE0000E94660261E085E00E94360261E086E0D4
:100BF0000E94660260E086E00E94360261E087E0C3
:100C00000E94660260E08EE00E94660260E088E07A
:100C10000E94660260E08AE00E94660260E089E06D
:100C20000E94660261E08FE00E94660261E080E15E
:100C30000E94660261E081E10E94660260912A01E1
:100C400081E10E94360261E082E10E946602D0E406
:100C5000C1E022242394312C90E2C92E9FEBD92E9F
:100C600092E0E92EF12C20EA822E2BEB922E2DE041
:100C7000A22EB12CD0937C0080917A008064809366
:100C80007A0080917A0086FDFCCF009178008091F7
:100C9000790010E0182B2801012E000C6608770857
:100CA00017FF14C0E0914A01F0914B010190F081CF
:100CB000E02D6DE28AE491E0099566277727CB0164
:100CC00064197509860997094AE003C04AE0C3011F
:100CD000B2010E94230442E050E068E171E08AE43E
:100CE00091E00E94DA00C801855F93400C9718F4E8
:100CF000C093250102C010922501C801855F914073
:100D0000459718F4C093260102C010922601C8012D
:100D10008A549140459718F4C093290102C010925B
:100D20002901005F11090F31110518F4C0932F013B
:100D300002C010922F010E94010300912B0110911B
:100D40002C0120912D0130912E01DC01CB01801B63
:100D5000910BA20BB30B01E0883C9105A105B105F5
:100D600008F400E00093300180912F01882309F4FA
:100D700044C0002309F441C00E94010360932B0189
:100D800070932C0180932D0190932E0180912A0164
:100D9000882331F01092430160E081E10E94360225
:100DA00010922A0160E081E10E94360270904301B6
:100DB000172D1C2710934301612F8FE00E943602EC
:100DC00070920501672D85E00E94360210920401A1
:100DD00060E086E00E943602112369F0C09348016A
:100DE0000E94010360934401709345018093460182
:100DF0009093470102C010924801809129018823F5
:100E0000B9F10023A9F10E94010360932B017093B3
:100E10002C0180932D0190932E0180912A0188232B
:100E200041F01092280110922A0160E081E10E94B5
:100E30003602109128011C2710932801612F80E1B0
:100E40000E9436021092040160E086E00E943602A1
:100E5000109349011093270111110AC08091480194
:100E6000811106C0C093050161E085E00E94360251
:100E700080912601882309F453C0002309F450C04F
:100E80000E94010360932B0170932C0180932D012C
:100E900090932E01109248011092490180912801EF
:100EA000811103C080914301811110922A01109297
:100EB000430160E08FE00E9436021092280160E05A
:100EC00080E10E94360210912A011C2710932A010A
:100ED000612F81E10E943602C093050161E085E047
:100EE000112331F00E943602C093040161E005C075
:100EF0000E9436021092040160E086E00E943602F1
:100F000080912701882361F080912A01811108C016
:100F1000C093280161E080E10E943602C09349013C
:100F200080912501882311F1809130018823F1F00F
:100F30000E94010360932B0170932C0180932D017B
:100F400090932E0180913A0190913B01892B31F0D1
:100F500010923B0110923A011092400160914001C1
:100F60006C276093400182E10E94360289E00E9472
:100F70000D02892B69F480914101882349F00E9478
:100F80000404892B29F080914001882309F41FC1B2
:100F90000E94010300913C0110913D0120913E010E
:100FA00030913F01DC01CB01801B910BA20BB30BF5
:100FB00089389341A105B10538F080913A019091AB
:100FC0003B01892B09F01AC180914001811177C042
:100FD00088E00E940D02892B29F48AE00E940D020C
:100FE000892B01F189E00E940D02892B79F40E947E
:100FF0000404892B09F00DC10E94010360933101A3
:101000007093320180933301909334010E94010365
:1010100060933601709337018093380190933901C2
:10102000C093410185E00E940D02892B49F4809212
:10103000000190920101A0920201B092030108C048
:10104000C0920001D0920101E0920201F0920301EE
:101050000E9401030091360110913701209138015F
:1010600030913901DC01CB01801B910BA20BB30B3A
:1010700000910001109101012091020130910301C2
:10108000081719072A073B07D0F4809141018823EC
:10109000B1F089E00E940D02892B79F00E940404CE
:1010A000892B09F0C3C00E94010360933101709342
:1010B0003201809333019093340110924101809169
:1010C0004801882359F10E940103009144011091C5
:1010D00045012091460130914701DC01CB01801B85
:1010E000910BA20BB30B80329F4BA240B105B0F025
:1010F000C093050161E085E00E9436021092040170
:1011000060E086E00E9436021092430160E08FE0CA
:101110000E94360210924801C09342018091490119
:10112000882309F451C08091480181114DC00E946B
:101130000D03882399F18091ED018B3039F170F125
:101140008551823058F56091E70170E080E090E0D1
:101150000E94C60920E030E040E853E40E94540AAF
:101160002B013C016091E80170E080E090E00E947A
:10117000C8099B01AC01C301B2010E9424092DECF6
:101180003CEC4CEC5DE30E94540A0CC06091E7011A
:1011900070E080E090E00E94C60904C060E070E06A
:1011A00080EC9FE70E9490096734710524F010924B
:1011B000050160E006C06134710534F4C093050197
:1011C00061E085E00E9436020E94DA0153CDC093AF
:1011D000400161E082E10E9436020E9401036093B7
:1011E0003C0170933D0180933E0190933F0130920A
:1011F0003B0120923A0110924101CACE10923B016C
:1012000010923A011092400160E082E10E943602A1
:10121000DBCE87E00E940D0261E0892B09F060E0DF
:101220006093350187E00E943602E6CE87E00E9497
:101230000D0261E0892B09F060E06093350187E0E1
:101240000E94360230CF5058BB27AA270E943B0984
:101250000C941A0A0E940C0A38F00E94130A20F01B
:1012600039F49F3F19F426F40C94090A0EF4E09522
:10127000E7FB0C94030AE92F0E942B0A58F3BA17D4
:10128000620773078407950720F079F4A6F50C949C
:101290004D0A0EF4E0950B2EBA2FA02D0B01B901CB
:1012A00090010C01CA01A0011124FF27591B99F0DC
:1012B000593F50F4503E68F11A16F040A22F232FE8
:1012C000342F4427585FF3CF469537952795A79538
:1012D000F0405395C9F77EF41F16BA0B620B730BDF
:1012E000840BBAF09150A1F0FF0FBB1F661F771F50
:1012F000881FC2F70EC0BA0F621F731F841F48F405
:10130000879577956795B795F7959E3F08F0B0CF8D
:101310009395880F08F09927EE0F97958795089574
:101320000E9497096894B1110C944E0A08950E9486
:10133000330A88F09F5798F0B92F9927B751B0F02A
:10134000E1F0660F771F881F991F1AF0BA95C9F749
:1013500014C0B13091F00E944D0AB1E008950C9490
:101360004D0A672F782F8827B85F39F0B93FCCF343
:10137000869577956795B395D9F73EF490958095C6
:10138000709561957F4F8F4F9F4F0895E89409C0E6
:1013900097FB3EF490958095709561957F4F8F4FA8
:1013A0009F4F9923A9F0F92F96E9BB279395F695BE
:1013B000879577956795B795F111F8CFFAF4BB0F3C
:1013C00011F460FF1BC06F5F7F4F8F4F9F4F16C0A0
:1013D000882311F096E911C0772321F09EE8872F2A
:1013E000762F05C0662371F096E8862F70E060E0E6
:1013F0002AF09A95660F771F881FDAF7880F96955F
:10140000879597F9089597F99F6780E870E060E005
:1014100008959FEF80EC089500240A94161617068D
:1014200018060906089500240A94121613061406D5
:1014300005060895092E0394000C11F4882352F038
:10144000BB0F40F4BF2B11F460FF04C06F5F7F4FF0
:101450008F4F9F4F089557FD9058440F551F59F0D7
:101460005F3F71F04795880F97FB991F61F09F3F91
:1014700079F087950895121613061406551FF2CFBA
:101480004695F1DF08C0161617061806991FF1CF0A
:1014900086957105610508940895E894BB27662731
:1014A0007727CB0197F908950E94670A0C941A0ACE
:1014B0000E940C0A38F00E94130A20F0952311F0C4
:1014C0000C94030A0C94090A11240C944E0A0E94ED
:1014D0002B0A70F3959FC1F3950F50E0551F629F43
:1014E000F001729FBB27F00DB11D639FAA27F00D7D
:1014F000B11DAA1F649F6627B00DA11D661F829FA4
:101500002227B00DA11D621F739FB00DA11D621F88
:10151000839FA00D611D221F749F3327A00D611DA5
:10152000231F849F600D211D822F762F6A2F112487
:101530009F5750409AF0F1F088234AF0EE0FFF1FBA
:10154000BB1F661F771F881F91505040A9F79E3F11
:10155000510580F00C94030A0C944E0A5F3FE4F3AB
:10156000983ED4F3869577956795B795F795E79567
:101570009F5FC1F7FE2B880F911D9695879597F970
:101580000895A1E21A2EAA1BBB1BFD010DC0AA1FC4
:10159000BB1FEE1FFF1FA217B307E407F50720F0DC
:1015A000A21BB30BE40BF50B661F771F881F991F57
:1015B0001A9469F760957095809590959B01AC01A0
:1015C000BD01CF010895EE0FFF1F0590F491E02DAE
:1015D000099481E090E0F8940C94EE0AF894FFCF1F
:1015E00060EA00000101000000007101DA00090159
:0C15F000B8013A0118012C010D0A00009E
:107800000C94343C0C94513C0C94513C0C94513CE1
:107810000C94513C0C94513C0C94513C0C94513CB4
:107820000C94513C0C94513C0C94513C0C94513CA4
:107830000C94513C0C94513C0C94513C0C94513C94
:107840000C94513C0C94513C0C94513C0C94513C84
:107850000C94513C0C94513C0C94513C0C94513C74
:107860000C94513C0C94513C11241FBECFEFD8E036
:10787000DEBFCDBF11E0A0E0B1E0ECE9FFE702C060
:1078800005900D92A230B107D9F712E0A2E0B1E065
:1078900001C01D92AD30B107E1F70E942D3D0C945F
:1078A000CC3F0C94003C982F959595959595959582
:1078B000905D8F708A307CF0282F295A8091C0000B
:1078C00085FFFCCF9093C6008091C00085FFFCCF60
:1078D0002093C6000895282F205DF0CF982F809127
:1078E000C00085FFFCCF9093C6000895EF92FF92F1
:1078F0000F931F93EE24FF2487018091C00087FD22
:1079000017C00894E11CF11C011D111D81E4E8164B
:1079100082E4F8068FE0080780E0180770F3E09132
:107920000401F091050109958091C00087FFE9CF1E
:107930008091C6001F910F91FF90EF9008950E94D3
:10794000763C982F8091C00085FFFCCF9093C600B5
:1079500091362CF490330CF09053892F089597555D
:10796000892F08951F930E949F3C182F0E949F3CCF
:107970001295107F810F1F9108951F93182F882350
:1079800021F00E94763C1150E1F71F9108951F935A
:10799000182F0E94763C803249F0809103018F5F5E
:1079A000809303018530C1F01F9108958091C0003C
:1079B00085FFFCCF84E18093C6008091C00085FFE5
:1079C000FCCF1093C6008091C00085FFFCCF80E102
:1079D0008093C6001F910895E0910401F091050184
:1079E00009951F9108950E94763C803241F0809164
:1079F00003018F5F80930301853081F008958091AA
:107A0000C00085FFFCCF84E18093C6008091C00058
:107A100085FFFCCF80E18093C6000895E0910401CA
:107A2000F09105010995089540E951E08823A1F0FE
:107A30002D9A28EE33E0FA013197F1F721503040CA
:107A4000D1F72D9828EE33E0FA013197F1F7215064
:107A50003040D1F7815061F708953F924F925F9285
:107A60006F927F928F929F92AF92BF92CF92DF924E
:107A7000EF92FF920F931F93CF93DF93000080E16B
:107A80008093C4001092C50088E18093C10086E015
:107A90008093C2005098589A259A81E00E94143D24
:107AA00024E1F22E9EE1E92E85E9D82E0FE0C02ECA
:107AB00010E1B12EAA24A394B1E49B2EA6E58A2E50
:107AC000F2E57F2EE0E26E2E79E4572E63E5462E36
:107AD00050E5352E0E94763C8033B1F18133B9F107
:107AE000803409F46FC0813409F476C0823409F41B
:107AF00085C0853409F488C0803531F1823521F1A3
:107B0000813511F1853509F485C0863509F48DC0BC
:107B1000843609F496C0843709F403C1853709F423
:107B200072C1863709F466C0809103018F5F80932C
:107B30000301853079F6E0910401F0910501099582
:107B40000E94763C803351F60E94F33CC3CF0E94E2
:107B5000763C803249F78091C00085FFFCCFF092DF
:107B6000C6008091C00085FFFCCF9092C600809136
:107B7000C00085FFFCCF8092C6008091C00085FFC9
:107B8000FCCF7092C6008091C00085FFFCCF609250
:107B9000C6008091C00085FFFCCF5092C600809146
:107BA000C00085FFFCCF4092C6008091C00085FFD9
:107BB000FCCF3092C6008091C00085FFFCCFB09210
:107BC000C60088CF0E94763C863808F4BDCF0E945C
:107BD000763C0E94F33C7ECF0E94763C803809F4CC
:107BE0009CC0813809F40BC1823809F43CC1883942
:107BF00009F48FC080E00E94C73C6CCF84E10E94F2
:107C0000BD3C0E94F33C66CF85E00E94BD3C0E94D3
:107C1000F33C60CF0E94763C809306010E94763C44
:107C2000809307010E94F33C55CF0E94763C80333D
:107C300009F41DC183E00E94BD3C80E00E94C73C66
:107C400049CF0E94763C809309020E94763C809343
:107C5000080280910C028E7F80930C020E94763C79
:107C6000853409F415C18091080290910902892B8D
:107C700089F000E010E00E94763CF801E85FFE4FDA
:107C800080830F5F1F4F80910802909109020817AF
:107C9000190788F30E94763C803209F045CF809125
:107CA0000C0280FF01C16091060170910701660F0F
:107CB000771F7093070160930601A0910802B091AD
:107CC00009021097C9F0E8E0F1E09B01AD014E0F09
:107CD0005F1FF999FECF32BD21BD819180BDFA9A17
:107CE000F99A2F5F3F4FE417F50799F76A0F7B1F4B
:107CF00070930701609306018091C00085FFFCCF5F
:107D0000F092C6008091C00085FFFCCFB092C60003
:107D1000E1CE83E00E94C73CDDCE82E00E94C73CFA
:107D2000D9CE0E94763C809309020E94763C8093D3
:107D300008028091060190910701880F991F909386
:107D40000701809306010E94763C853409F4A6C0A1
:107D500080910C028E7F80930C020E94763C8032D0
:107D600009F0B8CE8091C00085FFFCCFF092C6002C
:107D7000609108027091090261157105B9F140E046
:107D800050E080910C02A82FA170B82FB27011C0E2
:107D9000BB2309F45CC0E0910601F0910701319624
:107DA000F0930701E09306014F5F5F4F46175707B7
:107DB000E8F4AA2369F3F999FECF209106013091E6
:107DC000070132BD21BDF89A90B58091C00085FFB2
:107DD000FCCF9093C6002F5F3F4F30930701209355
:107DE00006014F5F5F4F4617570718F38091C00099
:107DF00085FDE5CE8091C00085FFF8CFE0CE81E023
:107E00000E94C73C67CE0E94763C803209F08CCE3F
:107E10008091C00085FFFCCFF092C6008091C00029
:107E200085FFFCCFE092C6008091C00085FFFCCFAB
:107E3000D092C6008091C00085FFFCCFC092C600E2
:107E40008091C00085FFFCCFB092C60043CEE09188
:107E50000601F091070194918091C00085FFFCCF4D
:107E60009093C6009CCF80E10E94C73C33CE0E9415
:107E7000763C0E94763C182F0E94763C112309F430
:107E800083C0113009F484C08FE00E94C73C22CE29
:107E900080910C02816080930C02E5CE80910C02EF
:107EA000816080930C0259CF809107018823880F4D
:107EB000880B8A2180930B02809106019091070123
:107EC000880F991F90930701809306018091080203
:107ED00080FF09C080910802909109020196909359
:107EE000090280930802F894F999FECF1127E091D6
:107EF0000601F0910701C8E0D1E08091080290915D
:107F00000902103091F40091570001700130D9F34B
:107F100003E000935700E89500915700017001308D
:107F2000D9F301E100935700E89509901990009169
:107F3000570001700130D9F301E000935700E89534
:107F40001395103498F011270091570001700130FB
:107F5000D9F305E000935700E895009157000170B0
:107F60000130D9F301E100935700E895329602976A
:107F700009F0C7CF103011F00296E5CF112480919F
:107F8000C00085FFB9CEBCCE8EE10E94C73CA2CD19
:0C7F900085E90E94C73C9ECDF894FFCF0D
:027F9C00800063
:040000030000780081
:00000001FF