:100000000C9462000C948A000C948A000C948A0070
:100010000C948A000C948A000C948A000C948A0038
:100020000C948A000C948A000C948A000C948A0028
:100030000C948A000C948A000C948A000C948A0018
:100040000C9424030C948A000C9421020C94FB0160
:100050000C948A000C948A000C948A000C948A00F8
:100060000C948A000C948A000000000024002700F1
:100070002A0000000000250028002B0000000008D6
:10008000000201000003040700000000000000005F
:1000900000000000230026002900040404040404D6
:1000A0000404020202020202030303030303010227
:1000B00004081020408001020408102001020408F6
:1000C00010200D0C11241FBECFEFD8E0DEBFCDBF36
:1000D00022E0AEE5B1E001C01D92A139B207E1F71F
:1000E00011E0A0E0B1E0E2E7FCE102C005900D9272
:1000F000AE35B107D9F710E0C2E6D0E004C02197D1
:10010000FE010E942C0EC136D107C9F70E94C3051B
:100110000C94370E0C940000089580E090E0089550
:10012000FC01538D448D252F30E0842F90E0821BFD
:10013000930B541710F0CF96089501970895FC0182
:10014000918D828D981761F0828DDF01A80FB11D0E
:100150005D968C91928D9F5F9F73928F90E0089532
:100160008FEF9FEF0895FC01918D828D981731F0EC
:10017000828DE80FF11D858D90E008958FEF9FEF40
:100180000895FC01918D228D892F90E0805C9F4F16
:10019000821B91098F73992708958AE991E00E9443
:1001A000C10021E0892B09F420E0822F0895FC0191
:1001B000848DDF01A80FB11DA35ABF4F2C91848DF0
:1001C00090E001968F739927848FA689B7892C9325
:1001D000A089B1898C9180648C93938D848D9813C0
:1001E00006C00288F389E02D80818F7D8083089589
:1001F000EF92FF920F931F93CF93DF93EC0181E077
:10020000888F9B8D8C8D981305C0E889F989808132
:1002100085FD24C0F62E0B8D10E00F5F1F4F0F736E
:100220001127E02E8C8DE8120CC00FB607FCFACF18
:10023000E889F989808185FFF5CFCE010E94D7003A
:10024000F1CF8B8DFE01E80FF11DE35AFF4FF082D5
:100250000B8FEA89FB898081806207C0EE89FF8964
:100260006083E889F98980818064808381E090E0FF
:10027000DF91CF911F910F91FF90EF900895CF9351
:10028000DF93EC01888D8823C9F0EA89FB8980819E
:1002900085FD05C0A889B9898C9186FD0FC00FB670
:1002A00007FCF5CF808185FFF2CFA889B9898C91B1
:1002B00085FFEDCFCE010E94D700E7CFDF91CF9130
:1002C000089580E090E0892B29F00E94CD008111F3
:1002D0000C9400000895833081F028F4813099F067
:1002E0008230A1F008958730A9F08830B9F08430C9
:1002F000D1F4809180008F7D03C0809180008F7742
:1003000080938000089584B58F7702C084B58F7D77
:1003100084BD08958091B0008F7703C08091B000B4
:100320008F7D8093B0000895CF93DF93282F30E026
:10033000F901E458FF4F8491F901E255FF4FD49140
:10034000F901E656FF4FC491CC2391F081110E9430
:100350006B01EC2FF0E0EE0FFF1FE057FF4FA59170
:10036000B491EC91ED2381E090E021F480E002C0B3
:1003700080E090E0DF91CF9108958E3008F08E50AC
:100380008770806480937C0080917A008064809381
:100390007A0080917A0086FDFCCF809178002091D0
:1003A000790090E0922B08953FB7F8948091630113
:1003B00090916401A0916501B091660126B5A89B5A
:1003C00005C02F3F19F00196A11DB11D3FBFBA2FE7
:1003D000A92F982F8827820F911DA11DB11DBC0147
:1003E000CD0142E0660F771F881F991F4A95D1F70C
:1003F00008950E94320E1F920F920FB60F92112491
:100400002F933F934F935F936F937F938F939F931C
:10041000AF93BF93EF93FF938AE991E00E94D700D7
:10042000FF91EF91BF91AF919F918F917F916F91CC
:100430005F914F913F912F910F900FBE0F901F90A2
:1004400018951F920F920FB60F9211242F938F932E
:100450009F93EF93FF93E091AA01F091AB0180810C
:10046000E091B001F091B10182FD12C090818091C4
:10047000B3018F5F8F732091B401821751F0E09127
:10048000B301F0E0E656FE4F958F8093B30101C0B3
:100490008081FF91EF919F918F912F910F900FBECF
:1004A0000F901F9018951F93CF93DF93282F30E064
:1004B000F901E458FF4F8491F901E255FF4FD491BF
:1004C000F901E656FF4FC491CC23C9F0162F8111D4
:1004D0000E946B01EC2FF0E0EE0FFF1FEE58FF4F74
:1004E000A591B4918FB7F894111105C09C91ED2F8F
:1004F000E095E92302C0EC91ED2BEC938FBFDF91E7
:10050000CF911F910895CF93DF9390E0FC01E255C6
:10051000FF4F2491FC01E656FF4F8491882361F13F
:1005200090E0880F991FFC01E859FF4FC591D491C5
:10053000FC01EE58FF4FA591B491611109C09FB71E
:10054000F8948881209582238883EC912E230BC018
:10055000623061F49FB7F8943881822F80958323AD
:100560008883EC912E2B2C939FBF06C08FB7F894F5
:10057000E8812E2B28838FBFDF91CF9108958F9232
:100580009F92AF92BF92CF92DF92EF92FF926B0158
:100590007C010E94D4014B015C01C114D104E1042F
:1005A000F104F1F00E94D401DC01CB018819990912
:1005B000AA09BB09883E9340A105B10570F321E06B
:1005C000C21AD108E108F10888EE880E83E0981E6F
:1005D000A11CB11CC114D104E104F10419F7DDCF51
:1005E000FF90EF90DF90CF90BF90AF909F908F9053
:1005F00008952FB7F89460915F0170916001809128
:100600006101909162012FBF08950F931F930E9483
:10061000F9020091750110917601209177013091D6
:100620007801DC01CB01801B910BA20BB30B21E005
:1006300030E0893E9340A105B10510F420E030E0A0
:10064000C9011F910F9108951F920F920FB60F923B
:1006500011242F933F938F939F93AF93BF938091D8
:100660005F0190916001A0916101B09162013091B0
:100670005E0123E0230F2D3720F40196A11DB11D4B
:1006800005C026E8230F0296A11DB11D20935E012F
:1006900080935F0190936001A0936101B093620128
:1006A0008091630190916401A0916501B091660110
:1006B0000196A11DB11D8093630190936401A093E5
:1006C0006501B0936601BF91AF919F918F913F916A
:1006D0002F910F900FBE0F901F9018958F929F92A1
:1006E000AF92BF92CF92DF92EF92FF92CF93DF93C0
:1006F000A0918602882311F03A2F01C030E080914A
:10070000870290E0880F991F80579F4FC0908C02FE
:10071000D0908D02E0908E02F0908F0240E050E089
:10072000BA01FC01C591D49128812A2323130FC05B
:100730004A015B012FEF821A920AA20AB20A4C15F3
:100740005D056E057F0538F4B501A401EACF342FAD
:10075000252FCB0104C030E020E080E090E0632F43
:10076000722FDF91CF91FF90EF90DF90CF90BF90ED
:10077000AF909F908F900895CF92DF92EF92FF926B
:100780000F931F93CF93DF936C017A018B01C0E02D
:10079000D0E0CE15DF0589F0D8016D918D01D6012D
:1007A000ED91FC910190F081E02DC6010995892B16
:1007B00011F47E0102C02196ECCFC701DF91CF91E9
:1007C0001F910F91FF90EF90DF90CF900895CF92FF
:1007D000DF92EF92FF920F931F93CF93DF93CDB7EA
:1007E000DEB7C054D1400FB6F894DEBF0FBECDBF08
:1007F0000E94F902009188021091890220918A02D8
:1008000030918B026B017C01C01AD10AE20AF30A13
:1008100040EDC41647E0D406E104F10418F48091D9
:100820009002BCC0609388027093890280938A0210
:1008300090938B0210928302109282021092810296
:100840001092800210927F0261E0809184020E94E7
:1008500053026AEF70E080E090E00E94BF0261E026
:10086000809184020E94830260E0809184020E9451
:10087000530264E170E080E090E00E94BF02F894CF
:1008800061E0809184020E9453028BE990E001971D
:10089000F1F762E0809184020E94830283E290E09B
:1008A0000197F1F780E00E946E03672B682B692B9C
:1008B00021F41092900278943EC081E00E946E0371
:1008C000672B682B692BA9F38E010F5F1F4F6E01F9
:1008D0008FEBC81A8EEFD80A780180E00E946E0371
:1008E000F701608371838283938381E00E946E03AA
:1008F000F7016483758386839783F8E0EF0EF11C1C
:10090000EC14FD0451F7789420E030E0F8014081C8
:10091000518162817381C480D580E680F780411562
:1009200051056105710529F0C114D104E104F104F8
:1009300021F41092900280E031C0F90183E0F59536
:10094000E7958A95E1F7E158FD4F8081880F4C15B6
:100950005D056E057F0508F4816080832F5F3F4F42
:10096000085F1F4F2832310589F62091830230E05D
:1009700040917F028091800290E0840F911D409110
:100980008102840F911D40918202840F911D99274D
:100990002817390771F681E080939002C05CDE4F22
:1009A0000FB6F894DEBF0FBECDBFDF91CF911F9180
:1009B0000F91FF90EF90DF90CF900895EAE9F1E07A
:1009C000A089B18982E08C93A485B5851C92A68507
:1009D000B7858FEC8C93108EA489B58986E08C93B3
:1009E000A289B3898C9180618C93A289B3898C91FF
:1009F00088608C93A289B3898C9180688C930288DB
:100A0000F389E02D80818F7D808308958F929F925E
:100A1000AF92BF92CF92DF92EF92FF926B017C0177
:100A20000E94F9024B015C01C60ED71EE81EF91E9A
:100A30000E94F902681579058A059B0528F0C616FB
:100A4000D706E806F906A0F7FF90EF90DF90CF9069
:100A5000BF90AF909F908F9008956115710579F0C8
:100A6000FB0101900020E9F73197AF01461B570BBE
:100A7000DC01ED91FC910280F381E02D099480E08E
:100A800090E008954F925F926F927F92EF92FF9263
:100A90000F931F93CF93DF93CDB7DEB7A1970FB618
:100AA000F894DEBF0FBECDBF7C01FA01CB0119A2C5
:100AB000223008F42AE08E010F5D1F4F422E512C88
:100AC000612C712CBF01A30192010E94670DF901F5
:100AD000CA01015011096A3014F4605D01C0695CFB
:100AE000D8016C93232B242B252B61F7B801C70168
:100AF0000E942D05A1960FB6F894DEBF0FBECDBFA4
:100B0000DF91CF911F910F91FF90EF907F906F90A9
:100B10005F904F900895CF92DF92EF92FF920F93E4
:100B20001F93CF93DF9377FF21C06A017B01EC0114
:100B3000E881F9810190F081E02D6DE209958C0149
:100B400044275527BA014C195D096E097F092AE02F
:100B5000CE010E944205800F911FDF91CF911F911E
:100B60000F91FF90EF90DF90CF9008952AE0DF91F2
:100B7000CF911F910F91FF90EF90DF90CF900C9449
:100B800042050C942D05789484B5826084BD84B5AB
:100B9000816084BD85B5826085BD85B5816085BD78
:100BA00080916E00816080936E0010928100809130
:100BB00081008260809381008091810081608093B8
:100BC0008100809180008160809380008091B100DD
:100BD00084608093B1008091B00081608093B00008
:100BE00080917A00846080937A0080917A0082609C
:100BF00080937A0080917A00816080937A0080915E
:100C00007A00806880937A001092C10010927B0273
:100C100010927C0210927D0210927E021092390294
:100C200010923A0210923B0210923C0268EB7BE079
:100C300080E090E00E9406058AE991E090937A02B4
:100C4000809379020E94DE040E94F90260933902C7
:100C500070933A0280933B0290933C026AE171E008
:100C60008091790290917A020E94C1056AE070E059
:100C700080E090E00E94060581E080934D020E9492
:100C8000F9020091390210913A0220913B02309111
:100C90003C026B017C01C01AD10AE20AF30A22E38A
:100CA000C216D104E104F10408F498C00E94F902CC
:100CB0006093390270933A0280933B0290933C0216
:100CC0006CE271E08091790290917A020E94C105F4
:100CD00063E371E08091790290917A020E94C105EC
:100CE00063E371E08091790290917A020E94C105DC
:100CF00063E371E08091790290917A020E94C105CC
:100D000063E371E08091790290917A020E94C105BB
:100D100065E371E08091790290917A020E94C105A9
:100D20006AE070E080E090E00E9406050E94DE0428
:100D300062E0809184020E94830280E398EFAFEF2B
:100D4000BFEF8093880290938902A0938A02B093A8
:100D50008B0261E085E00E94830261E085E00E94F1
:100D6000530261E086E00E94830260E086E00E9418
:100D7000530261E087E00E94830260E08EE00E94FF
:100D8000830260E089E00E94830261E08FE00E94BC
:100D9000830261E080E10E94830261E081E10E94C0
:100DA000830260916E0181E10E94530261E082E161
:100DB0000E94830201E0C1E022242394312C90E2BE
:100DC000C92E9FEBD92E92E0E92EF12C20EA822E3B
:100DD0002BEB922E2DE0A22EB12C6AC10E94F902BB
:100DE0004B015C01DC01CB018C199D09AE09BF09E7
:100DF0006C017D0192E3C90ED11CE11CF11C0E9423
:100E0000F902681579058A059B0508F44FCFC616C7
:100E1000D706E806F90698F749CFA1E04A1651042B
:100E20006104710409F489C1842D0E94940121E0B8
:100E3000892B09F482C1822F0D2E01C0880F0A94DC
:100E4000EAF7182BDF5FD83009F479C1BDE04B1603
:100E500051046104710409F472C161E070E080E042
:100E600090E00E9406052FEF421A520A620A720AA7
:100E70003EE0431651046104710479F661E070E0CC
:100E800080E090E00E94060563E371E080917902C2
:100E900090917A020E94C105D0E08D2F0E94BD0181
:100EA000AC01990F660B770B8091790290917A02D1
:100EB0000E948B0567E471E08091790290917A023B
:100EC0000E94C105DF5FD83041F763E371E0809194
:100ED000790290917A020E94C10563E371E08091EA
:100EE000790290917A020E94C10565E371E08091D8
:100EF000790290917A020E94C10561E070E080E081
:100F000090E00E9406050E94F902672B682B692B6E
:100F100009F02FC30E94F902623071058105910525
:100F200008F027C38EE00E94BD013C01AC01990F7F
:100F3000660B770B8AE991E00E948B056BE371E009
:100F40008AE991E00E942D05C301855F93400C97CB
:100F500008F00BC1C0936901C301855F91404597BB
:100F600008F006C1C0936A01C3018A5491404597B5
:100F700008F001C1C0936D01C301805F91094F97D3
:100F800008F0FCC08091000190910101681679067B
:100F900024F47092010160920001809167019091A8
:100FA00068018615970524F47092680160926701C4
:100FB00060E571E08AE991E00E94C1054091670116
:100FC00050916801052E000C660B770B8AE991E0C1
:100FD0000E948B0566E571E08AE991E00E94C105F7
:100FE0004091000150910101052E000C660B770B1A
:100FF0008AE991E00E948B056BE371E08AE991E058
:101000000E942D05C09373010E94F90240906F0168
:10101000509070016090710170907201DC01CB0101
:1010200084199509A609B70911E0883C9105A10525
:10103000B10508F410E010937401809173018111DF
:10104000A0C080916D018111E1C080916A01811180
:1010500016C180916901811167C189E00E949401E4
:10106000892B09F485C10E94F902409080015090BB
:1010700081016090820170908301DC01CB018419B1
:101080009509A609B70989389341A105B10508F06A
:101090007FC180918401882309F482C180918C01F1
:1010A0008111E7C180918D01811110C20E946101FF
:1010B0000E94F9024090960150909701609098012B
:1010C00070909901DC01CB0184199509A609B70933
:1010D00086399105A105B10508F415CF0E94F902E2
:1010E0006093960170939701809398019093990172
:1010F00061E070E080E090E00E9406050E94F90245
:101100006093390270933A0280933B0290933C02C1
:101110006CE271E08091790290917A020E94C1059F
:1011200063E371E08091790290917A020E94C10597
:10113000412C512C3201D0E010E020E07CCE412F38
:1011400050E060E070E02AE08091790290917A02AC
:101150000E94420567E471E08091790290917A02E1
:101160000E94C105D0E010E078CE10926901F4CE63
:1011700010926A01F9CE10926D01FECE10927301A9
:1011800043CF112309F45DCF0E94F90260936F01F0
:1011900070937001809371019093720180916E0140
:1011A000882331F01092870160E081E10E945302B0
:1011B00010926E0160E081E10E94530270908701FD
:1011C000D72DD027D09387016D2F8FE00E94530237
:1011D00070920701672D85E00E945302109206016C
:1011E00060E086E00E945302DD2369F0C0938C0129
:1011F0000E94F902609388017093890180938A01AB
:1012000090938B011ECF10928C011BCF112309F4F8
:101210001CCF0E94F90260936F017093700180935C
:1012200071019093720180916E01882341F01092B8
:101230006C0110926E0160E081E10E945302D09136
:101240006C01D027D0936C016D2F80E10E94530276
:101250001092060160E086E00E945302D0938D0157
:10126000D0936B01D111F1CE80918C018111EDCE23
:10127000C093070161E085E00E945302E6CE11238E
:1012800009F4E7CE0E94F90260936F017093700138
:10129000809371019093720110928C0110928D01D4
:1012A00080916C01811103C080918701811110929E
:1012B0006E011092870160E08FE00E94530210924D
:1012C0006C0160E080E10E945302D0916E01D02752
:1012D000D0936E016D2F81E10E945302C0930701EC
:1012E00061E085E0DD2331F00E945302C0930601E6
:1012F00061E005C00E9453021092060160E086E0A2
:101300000E94530280916B01882309F4A2CE809140
:101310006E0181119ECEC0936C0161E080E10E945C
:101320005302C0938D0195CE80917401882309F4F6
:1013300094CE0E94F90260936F01709370018093C4
:1013400071019093720180917E0190917F01892BB0
:1013500031F010927F0110927E0110928401609111
:10136000840160276093840182E10E94530275CE5C
:1013700080918501882309F476CE0E940503892B8C
:1013800009F471CE80918401882309F402C26BCEE6
:1013900080917E0190917F01892B09F011C279CE55
:1013A00088E00E949401892B59F189E00E94940100
:1013B000892BD1F40E940503892B61F087E00E94FC
:1013C000940161E0892B09F060E06093790187E086
:1013D0000E9453020E94F902609375017093760196
:1013E00080937701909378010E94F90260937A01CB
:1013F00070937B0180937C0190937D01C093850164
:1014000085E00E949401892B49F480920201909218
:101410000301A0920401B092050108C0C09202012C
:10142000D0920301E0920401F09205010E94F902BA
:1014300040907A0150907B0160907C0170907D011A
:10144000DC01CB0184199509A609B7094090020176
:1014500050900301609004017090050148165906F0
:101460006A067B0608F01ACE809185018111B3C10E
:1014700015CE0E94F9024090880150908901609039
:101480008A0170908B01DC01CB0184199509A609B2
:10149000B70980329F4BA240B10508F403CEC09338
:1014A000070161E085E00E9453021092060160E0AE
:1014B00086E00E9453021092870160E08FE00E9454
:1014C000530210928C01C0938601ECCD80918C0167
:1014D0008111ECCD0E94E703882399F18091850268
:1014E0008B3039F170F18551823058F560917F026F
:1014F00070E080E090E00E946C0C20E030E040E87A
:1015000053E40E94A90C2B013C016091800270E021
:1015100080E090E00E946E0C9B01AC01C301B2011F
:101520000E948A0D2DEC3CEC4CEC5DE30E94A90C72
:101530000CC060917F0270E080E090E00E946C0C33
:1015400004C060E070E080EC9FE70E94F60D673415
:10155000710524F01092070160E007C06134710545
:101560000CF0A4CDC093070161E085E00E94530216
:101570009DCD0E94F9026093920170939301809334
:1015800094019093950140908E0150908F0160904E
:10159000900170909101641575058605970540F4DA
:1015A00060938E0170938F018093900190939101CD
:1015B00040908E0150908F01609090017090910149
:1015C0009B01AC01241935094609570929013A0143
:1015D0003AEF431651046104710408F4A3CC6093FC
:1015E0008E0170938F01809390019093910184EF0D
:1015F00091E0A0E0B0E08093450290934602A09372
:101600004702B09348021092490210924A02109287
:101610004B0210924C0280913D0290913E02A091AB
:101620003F02B09140028093410290934202A09306
:101630004302B09344020E94F90260933D0270930A
:101640003E0280933F02909340020E94F902609311
:10165000390270933A0280933B0290933C020E94BD
:10166000F9022B013C016EE371E0809179029091C7
:101670007A020E94C1052AE041E050E060E070E09B
:101680008091790290917A020E94420565E471E0AE
:101690008091790290917A020E94C1052AE0B301FB
:1016A000A2018091790290917A020E94420567E43A
:1016B00071E08091790290917A020E94C105809137
:1016C0003D0290913E02A0913F02B0914002B301D1
:1016D000A201481B590B6A0B7B0B2AE0809179020F
:1016E00090917A020E94420567E471E0809179024C
:1016F00090917A020E94C10540913D0250913E02B4
:1017000060913F02709140028091410290914202AB
:10171000A0914302B0914402481B590B6A0B7B0B0A
:101720002AE08091790290917A020E94420563E357
:1017300071E08091790290917A020E94C1050E9425
:10174000F902AB01BC012AE08091790290917A0202
:101750000E9442056090790270907A0269E471E01B
:10176000C3010E942D056BE371E0C3010E942D05AA
:1017700065E070E080E090E00E9406050E94F902BA
:1017800060933D0270933E0280933F02909340022B
:10179000C9CBC093840161E082E10E9453020E94A0
:1017A000F90260938001709381018093820190938C
:1017B000830130927F0120927E011092850153CCEB
:1017C00010927F0110927E011092840160E082E10C
:1017D0000E9453025ECC89E00E949401892BD1F0D3
:1017E0000E940503892B61F087E00E94940161E06B
:1017F000892B09F060E06093790187E00E94530231
:101800000E94F902609375017093760180937701CD
:10181000909378011092850141CCEAE9F1E01382BE
:10182000128288EE93E0A0E0B0E084839583A683E3
:10183000B7838CE091E09183808385EC90E095877D
:10184000848784EC90E09787868780EC90E0918B8A
:10185000808B81EC90E0938B828B82EC90E0958B77
:10186000848B86EC90E0978B868B118E128E138E74
:10187000148EE7E3F2E01682178210861186128634
:1018800013861486158616861786108A118A128A80
:10189000138A148A158AAFE7B2E082E015968C931A
:1018A000159786E116968C931697E0EBF0E0E4919D
:1018B0001796EC931797ECE9F0E0E4911896EC9307
:1018C000189740E85EE360E070E01D964D935D93ED
:1018D0006D937C9350970895E89409C097FB3EF46C
:1018E00090958095709561957F4F8F4F9F4F99236D
:1018F000A9F0F92F96E9BB279395F69587957795EB
:101900006795B795F111F8CFFAF4BB0F11F460FFAA
:101910001BC06F5F7F4F8F4F9F4F16C0882311F002
:1019200096E911C0772321F09EE8872F762F05C016
:10193000662371F096E8862F70E060E02AF09A95B1
:10194000660F771F881FDAF7880F9695879597F9A6
:1019500008950E94BC0C0C942D0D0E941F0D38F0B0
:101960000E94260D20F0952311F00C94160D0C9476
:101970001C0D11240C94610D0E943E0D70F3959F77
:10198000C1F3950F50E0551F629FF001729FBB2776
:10199000F00DB11D639FAA27F00DB11DAA1F649F12
:1019A0006627B00DA11D661F829F2227B00DA11DC5
:1019B000621F739FB00DA11D621F839FA00D611D4B
:1019C000221F749F3327A00D611D231F849F600D6C
:1019D000211D822F762F6A2F11249F5750409AF095
:1019E000F1F088234AF0EE0FFF1FBB1F661F771F21
:1019F000881F91505040A9F79E3F510580F00C94EC
:101A0000160D0C94610D5F3FE4F3983ED4F3869578
:101A100077956795B795F795E7959F5FC1F7FE2B8B
:101A2000880F911D9695879597F9089597F99F6767
:101A300080E870E060E008959FEF80EC0895002456
:101A40000A941616170618060906089500240A9423
:101A500012161306140605060895092E0394000CA9
:101A600011F4882352F0BB0F40F4BF2B11F460FF38
:101A700004C06F5F7F4F8F4F9F4F089557FD905861
:101A8000440F551F59F05F3F71F04795880F97FB42
:101A9000991F61F09F3F79F08795089512161306FC
:101AA0001406551FF2CF4695F1DF08C0161617062B
:101AB0001806991FF1CF8695710561050894089560
:101AC000E894BB2766277727CB0197F90895A1E211
:101AD0001A2EAA1BBB1BFD010DC0AA1FBB1FEE1FA8
:101AE000FF1FA217B307E407F50720F0A21BB30BF3
:101AF000E40BF50B661F771F881F991F1A9469F76F
:101B000060957095809590959B01AC01BD01CF01CA
:101B100008955058BB27AA270E94A10D0C942D0DA3
:101B20000E941F0D38F00E94260D20F039F49F3FCF
:101B300019F426F40C941C0D0EF4E095E7FB0C94BC
:101B4000160DE92F0E943E0D58F3BA17620773076E
:101B50008407950720F079F4A6F50C94600D0EF437
:101B6000E0950B2EBA2FA02D0B01B90190010C01AD
:101B7000CA01A0011124FF27591B99F0593F50F4C5
:101B8000503E68F11A16F040A22F232F342F44271D
:101B9000585FF3CF469537952795A795F040539515
:101BA000C9F77EF41F16BA0B620B730B840BBAF0E5
:101BB0009150A1F0FF0FBB1F661F771F881FC2F750
:101BC0000EC0BA0F621F731F841F48F48795779564
:101BD0006795B795F7959E3F08F0B0CF9395880F1E
:101BE00008F09927EE0F9795879508950E94FD0DAF
:101BF0006894B1110C94610D08950E94460D88F00F
:101C00009F5798F0B92F9927B751B0F0E1F0660FC0
:101C1000771F881F991F1AF0BA95C9F714C0B13001
:101C200091F00E94600DB1E008950C94600D672F53
:101C3000782F8827B85F39F0B93FCCF38695779530
:101C40006795B395D9F73EF4909580957095619519
:101C50007F4F8F4F9F4F0895EE0FFF1F0590F49118
:101C6000E02D099481E090E0F8940C94370EF894FC
:021C7000FFCFA4
:101C7200D00760EA0000010100000000F800BC0388
:101C820090003F01C1009F00B300564D4450565F83
:101C9200317C315F564D4450560D0A00564D44502A
:101CA200525F007C005F564D4450520D0A00564D63
:101CB2004450455F003A323A005F564D4450450069
:0E1CC2004D61783D2000204D696E3D200000F0
:107800000C94343C0C94513C0C94513C0C94513CE1
:107810000C94513C0C94513C0C94513C0C94513CB4
:107820000C94513C0C94513C0C94513C0C94513CA4
:107830000C94513C0C94513C0C94513C0C94513C94
:107840000C94513C0C94513C0C94513C0C94513C84
:107850000C94513C0C94513C0C94513C0C94513C74
:107860000C94513C0C94513C11241FBECFEFD8E036
:10787000DEBFCDBF11E0A0E0B1E0ECE9FFE702C060
:1078800005900D92A230B107D9F712E0A2E0B1E065
:1078900001C01D92AD30B107E1F70E942D3D0C945F
:1078A000CC3F0C94003C982F959595959595959582
:1078B000905D8F708A307CF0282F295A8091C0000B
:1078C00085FFFCCF9093C6008091C00085FFFCCF60
:1078D0002093C6000895282F205DF0CF982F809127
:1078E000C00085FFFCCF9093C6000895EF92FF92F1
:1078F0000F931F93EE24FF2487018091C00087FD22
:1079000017C00894E11CF11C011D111D81E4E8164B
:1079100082E4F8068FE0080780E0180770F3E09132
:107920000401F091050109958091C00087FFE9CF1E
:107930008091C6001F910F91FF90EF9008950E94D3
:10794000763C982F8091C00085FFFCCF9093C600B5
:1079500091362CF490330CF09053892F089597555D
:10796000892F08951F930E949F3C182F0E949F3CCF
:107970001295107F810F1F9108951F93182F882350
:1079800021F00E94763C1150E1F71F9108951F935A
:10799000182F0E94763C803249F0809103018F5F5E
:1079A000809303018530C1F01F9108958091C0003C
:1079B00085FFFCCF84E18093C6008091C00085FFE5
:1079C000FCCF1093C6008091C00085FFFCCF80E102
:1079D0008093C6001F910895E0910401F091050184
:1079E00009951F9108950E94763C803241F0809164
:1079F00003018F5F80930301853081F008958091AA
:107A0000C00085FFFCCF84E18093C6008091C00058
:107A100085FFFCCF80E18093C6000895E0910401CA
:107A2000F09105010995089540E951E08823A1F0FE
:107A30002D9A28EE33E0FA013197F1F721503040CA
:107A4000D1F72D9828EE33E0FA013197F1F7215064
:107A50003040D1F7815061F708953F924F925F9285
:107A60006F927F928F929F92AF92BF92CF92DF924E
:107A7000EF92FF920F931F93CF93DF93000080E16B
:107A80008093C4001092C50088E18093C10086E015
:107A90008093C2005098589A259A81E00E94143D24
:107AA00024E1F22E9EE1E92E85E9D82E0FE0C02ECA
:107AB00010E1B12EAA24A394B1E49B2EA6E58A2E50
:107AC000F2E57F2EE0E26E2E79E4572E63E5462E36
:107AD00050E5352E0E94763C8033B1F18133B9F107
:107AE000803409F46FC0813409F476C0823409F41B
:107AF00085C0853409F488C0803531F1823521F1A3
:107B0000813511F1853509F485C0863509F48DC0BC
:107B1000843609F496C0843709F403C1853709F423
:107B200072C1863709F466C0809103018F5F80932C
:107B30000301853079F6E0910401F0910501099582
:107B40000E94763C803351F60E94F33CC3CF0E94E2
:107B5000763C803249F78091C00085FFFCCFF092DF
:107B6000C6008091C00085FFFCCF9092C600809136
:107B7000C00085FFFCCF8092C6008091C00085FFC9
:107B8000FCCF7092C6008091C00085FFFCCF609250
:107B9000C6008091C00085FFFCCF5092C600809146
:107BA000C00085FFFCCF4092C6008091C00085FFD9
:107BB000FCCF3092C6008091C00085FFFCCFB09210
:107BC000C60088CF0E94763C863808F4BDCF0E945C
:107BD000763C0E94F33C7ECF0E94763C803809F4CC
:107BE0009CC0813809F40BC1823809F43CC1883942
:107BF00009F48FC080E00E94C73C6CCF84E10E94F2
:107C0000BD3C0E94F33C66CF85E00E94BD3C0E94D3
:107C1000F33C60CF0E94763C809306010E94763C44
:107C2000809307010E94F33C55CF0E94763C80333D
:107C300009F41DC183E00E94BD3C80E00E94C73C66
:107C400049CF0E94763C809309020E94763C809343
:107C5000080280910C028E7F80930C020E94763C79
:107C6000853409F415C18091080290910902892B8D
:107C700089F000E010E00E94763CF801E85FFE4FDA
:107C800080830F5F1F4F80910802909109020817AF
:107C9000190788F30E94763C803209F045CF809125
:107CA0000C0280FF01C16091060170910701660F0F
:107CB000771F7093070160930601A0910802B091AD
:107CC00009021097C9F0E8E0F1E09B01AD014E0F09
:107CD0005F1FF999FECF32BD21BD819180BDFA9A17
:107CE000F99A2F5F3F4FE417F50799F76A0F7B1F4B
:107CF00070930701609306018091C00085FFFCCF5F
:107D0000F092C6008091C00085FFFCCFB092C60003
:107D1000E1CE83E00E94C73CDDCE82E00E94C73CFA
:107D2000D9CE0E94763C809309020E94763C8093D3
:107D300008028091060190910701880F991F909386
:107D40000701809306010E94763C853409F4A6C0A1
:107D500080910C028E7F80930C020E94763C8032D0
:107D600009F0B8CE8091C00085FFFCCFF092C6002C
:107D7000609108027091090261157105B9F140E046
:107D800050E080910C02A82FA170B82FB27011C0E2
:107D9000BB2309F45CC0E0910601F0910701319624
:107DA000F0930701E09306014F5F5F4F46175707B7
:107DB000E8F4AA2369F3F999FECF209106013091E6
:107DC000070132BD21BDF89A90B58091C00085FFB2
:107DD000FCCF9093C6002F5F3F4F30930701209355
:107DE00006014F5F5F4F4617570718F38091C00099
:107DF00085FDE5CE8091C00085FFF8CFE0CE81E023
:107E00000E94C73C67CE0E94763C803209F08CCE3F
:107E10008091C00085FFFCCFF092C6008091C00029
:107E200085FFFCCFE092C6008091C00085FFFCCFAB
:107E3000D092C6008091C00085FFFCCFC092C600E2
:107E40008091C00085FFFCCFB092C60043CEE09188
:107E50000601F091070194918091C00085FFFCCF4D
:107E60009093C6009CCF80E10E94C73C33CE0E9415
:107E7000763C0E94763C182F0E94763C112309F430
:107E800083C0113009F484C08FE00E94C73C22CE29
:107E900080910C02816080930C02E5CE80910C02EF
:107EA000816080930C0259CF809107018823880F4D
:107EB000880B8A2180930B02809106019091070123
:107EC000880F991F90930701809306018091080203
:107ED00080FF09C080910802909109020196909359
:107EE000090280930802F894F999FECF1127E091D6
:107EF0000601F0910701C8E0D1E08091080290915D
:107F00000902103091F40091570001700130D9F34B
:107F100003E000935700E89500915700017001308D
:107F2000D9F301E100935700E89509901990009169
:107F3000570001700130D9F301E000935700E89534
:107F40001395103498F011270091570001700130FB
:107F5000D9F305E000935700E895009157000170B0
:107F60000130D9F301E100935700E895329602976A
:107F700009F0C7CF103011F00296E5CF112480919F
:107F8000C00085FFB9CEBCCE8EE10E94C73CA2CD19
:0C7F900085E90E94C73C9ECDF894FFCF0D
:027F9C00800063
:040000030000780081
:00000001FF