:100000000C9462000C948A000C948A000C948A0070
:100010000C948A000C948A000C948A000C948A0038
:100020000C948A000C948A000C948A000C948A0028
:100030000C948A000C948A000C948A000C948A0018
:100040000C9419050C948A000C94E7040C94C104D8
:100050000C948A000C948A000C948A000C948A00F8
:100060000C948A000C948A000000000024002700F1
:100070002A0000000000250028002B0000000008D6
:10008000000201000003040700000000000000005F
:1000900000000000230026002900040404040404D6
:1000A0000404020202020202030303030303010227
:1000B00004081020408001020408102001020408F6
:1000C0001020630511241FBECFEFD8E0DEBFCDBFE7
:1000D00022E0AEE3B1E001C01D92A536B207E1F720
:1000E00011E0A0E0B1E0EEECF8E102C005900D9265
:1000F000AE33B107D9F710E0C2E6D0E004C02197D3
:10010000FE010E945A0CC136D107C9F70E94C205F0
:100110000C94650C0C9400008F929F92AF92BF924A
:10012000CF92DF92EF92FF92CF93DF93A0915A028A
:10013000882311F03A2F01C030E080915B0290E0FB
:10014000880F991F80579F4FC0906002D090610226
:10015000E0906202F090630240E050E0BA01FC01DE
:10016000C591D49128812A2323130FC04A015B0132
:100170002FEF821A920AA20AB20A4C155D056E058B
:100180007F0538F4B501A401EACF342F252FCB0128
:1001900004C030E020E080E090E0632F722FDF9118
:1001A000CF91FF90EF90DF90CF90BF90AF909F9056
:1001B0008F900895CF92DF92EF92FF920F931F934B
:1001C000CF93DF936C017A018B01C0E0D0E0CE15B4
:1001D000DF0589F0D8016D918D01D601ED91FC917B
:1001E0000190F081E02DC6010995892B11F47E0163
:1001F00002C02196ECCFC701DF91CF911F910F91E3
:10020000FF90EF90DF90CF900895089580E090E008
:100210000895FC01538D448D252F30E0842F90E00C
:10022000821B930B541710F0CF96089501970895F1
:10023000FC01918D828D981761F0828DDF01A80FEE
:10024000B11D5D968C91928D9F5F9F73928F90E010
:1002500008958FEF9FEF0895FC01918D828D98177F
:1002600031F0828DE80FF11D858D90E008958FEFBC
:100270009FEF0895FC01918D228D892F90E0805C85
:100280009F4F821B91098F73992708958EE691E005
:100290000E943A0121E0892B09F420E0822F089581
:1002A000FC01848DDF01A80FB11DA35ABF4F2C9113
:1002B000848D90E001968F739927848FA689B789E2
:1002C0002C93A089B1898C9180648C93938D848DBB
:1002D000981306C00288F389E02D80818F7D80838A
:1002E0000895EF92FF920F931F93CF93DF93EC014A
:1002F00081E0888F9B8D8C8D981305C0E889F989E2
:10030000808185FD24C0F62E0B8D10E00F5F1F4FFE
:100310000F731127E02E8C8DE8120CC00FB607FC6E
:10032000FACFE889F989808185FFF5CFCE010E9457
:100330005001F1CF8B8DFE01E80FF11DE35AFF4F05
:10034000F0820B8FEA89FB898081806207C0EE8989
:10035000FF896083E889F98980818064808381E0F6
:1003600090E0DF91CF911F910F91FF90EF90089552
:10037000CF93DF93EC01888D8823C9F0EA89FB894C
:10038000808185FD05C0A889B9898C9186FD0FC043
:100390000FB607FCF5CF808185FFF2CFA889B98918
:1003A0008C9185FFEDCFCE010E945001E7CFDF9108
:1003B000CF91089580E090E0892B29F00E944601BA
:1003C00081110C9400000895833081F028F481306D
:1003D00099F08230A1F008958730A9F08830B9F003
:1003E0008430D1F4809180008F7D03C080918000A3
:1003F0008F7780938000089584B58F7702C084B58D
:100400008F7D84BD08958091B0008F7703C0809167
:10041000B0008F7D8093B0000895CF93DF93282F95
:1004200030E0F901E458FF4F8491F901E255FF4FA4
:10043000D491F901E656FF4FC491CC2391F081117C
:100440000E94E401EC2FF0E0EE0FFF1FE057FF4F9A
:10045000A591B491EC91ED2381E090E021F480E04E
:1004600002C080E090E0DF91CF9108951F93CF9379
:10047000DF93282F30E0F901E458FF4F8491F90110
:10048000E255FF4FD491F901E656FF4FC491CC23BA
:10049000C9F0162F81110E94E401EC2FF0E0EE0F5D
:1004A000FF1FEE58FF4FA591B4918FB7F89411112B
:1004B00005C09C91ED2FE095E92302C0EC91ED2B56
:1004C000EC938FBFDF91CF911F910895CF93DF936E
:1004D00090E0FC01E255FF4F2491FC01E656FF4FEE
:1004E0008491882361F190E0880F991FFC01E859FD
:1004F000FF4FC591D491FC01EE58FF4FA591B491E7
:10050000611109C09FB7F894888120958223888360
:10051000EC912E230BC0623061F49FB7F8943881C0
:10052000822F809583238883EC912E2B2C939FBF61
:1005300006C08FB7F894E8812E2B28838FBFDF91F8
:10054000CF9108958E3008F08E508770806480932C
:100550007C0080917A00806480937A0080917A0098
:1005600086FDFCCF809178002091790090E0922B5D
:1005700008953FB7F8948091430190914401A09170
:100580004501B091460126B5A89B05C02F3F19F043
:100590000196A11DB11D3FBFBA2FA92F982F882703
:1005A000820F911DA11DB11DBC01CD0142E0660F5E
:1005B000771F881F991F4A95D1F708958F929F92B0
:1005C000AF92BF92CF92DF92EF92FF926B017C01CC
:1005D0000E94B9024B015C01C114D104E104F10491
:1005E000F1F00E94B902DC01CB0188199909AA092E
:1005F000BB09883E9340A105B10570F321E0C21A02
:10060000D108E108F10888EE880E83E0981EA11C4D
:10061000B11CC114D104E104F10419F7DDCFFF903E
:10062000EF90DF90CF90BF90AF909F908F90089504
:100630002FB7F89460913F01709140018091410182
:10064000909142012FBF0895CF92DF92EF92FF92D7
:100650000F931F93CF93DF93CDB7DEB7C054D14034
:100660000FB6F894DEBF0FBECDBF0E9418030091F5
:100670005C0210915D0220915E0230915F026B017D
:100680007C01C01AD10AE20AF30A40EDC41647E021
:10069000D406E104F10418F480916402BCC06093B4
:1006A0005C0270935D0280935E0290935F021092F1
:1006B0005702109256021092550210925402109254
:1006C000530261E0809158020E9436026AEF70E0A6
:1006D00080E090E00E94DE0261E0809158020E947A
:1006E000660260E0809158020E94360264E170E088
:1006F00080E090E00E94DE02F89461E08091580270
:100700000E9436028BE990E00197F1F762E0809158
:1007100058020E94660283E290E00197F1F780E0C0
:100720000E948C00672B682B692B21F410926402C5
:1007300078943EC081E00E948C00672B682B692B67
:10074000A9F38E010F5F1F4F6E018FEBC81A8EEF5A
:10075000D80A780180E00E948C00F70160837183E1
:100760008283938381E00E948C00F7016483758308
:1007700086839783F8E0EF0EF11CEC14FD0451F72B
:10078000789420E030E0F8014081518162817381EA
:10079000C480D580E680F78041155105610571055B
:1007A00029F0C114D104E104F10421F4109264028F
:1007B00080E031C0F90183E0F595E7958A95E1F78E
:1007C000ED5AFD4F8081880F4C155D056E057F0544
:1007D00008F4816080832F5F3F4F085F1F4F2832EE
:1007E000310589F62091570230E040915302809103
:1007F000540290E0840F911D40915502840F911D89
:1008000040915602840F911D99272817390771F6D8
:1008100081E080936402C05CDE4F0FB6F894DEBFC7
:100820000FBECDBFDF91CF911F910F91FF90EF9041
:10083000DF90CF9008958F929F92AF92BF92CF9208
:10084000DF92EF92FF926B017C010E9418034B0133
:100850005C01C60ED71EE81EF91E0E94180368151B
:1008600079058A059B0528F0C616D706E806F9061D
:10087000A0F7FF90EF90DF90CF90BF90AF909F9048
:100880008F9008950F931F930E94180300915201B7
:10089000109153012091540130915501DC01CB019D
:1008A000801B910BA20BB30B21E0893E9340A10565
:1008B000B10508F420E0822F1F910F910895611572
:1008C000710579F0FB0101900020E9F73197AF0144
:1008D000461B570BDC01ED91FC910280F381E02D6A
:1008E000099480E090E008954F925F926F927F921A
:1008F000EF92FF920F931F93CF93DF93CDB7DEB7A5
:10090000A1970FB6F894DEBF0FBECDBF7C01FA01F0
:10091000CB0119A2223008F42AE08E010F5D1F4F8F
:10092000422E512C612C712CBF01A30192010E9417
:10093000950BF901CA01015011096A3014F4605D88
:1009400001C0695CD8016C93232B242B252B61F704
:10095000B801C7010E945F04A1960FB6F894DEBFEC
:100960000FBECDBFDF91CF911F910F91FF90EF9000
:100970007F906F905F904F9008950C945F040E9459
:10098000600C1F920F920FB60F9211242F933F937A
:100990004F935F936F937F938F939F93AF93BF9387
:1009A000EF93FF938EE691E00E945001FF91EF914B
:1009B000BF91AF919F918F917F916F915F914F9177
:1009C0003F912F910F900FBE0F901F9018951F927F
:1009D0000F920FB60F9211242F938F939F93EF9343
:1009E000FF93E0917E01F0917F018081E09184018D
:1009F000F091850182FD12C09081809187018F5F07
:100A00008F7320918801821751F0E0918701F0E007
:100A1000E259FE4F958F8093870101C08081FF913D
:100A2000EF919F918F912F910F900FBE0F901F907C
:100A300018951F920F920FB60F9211242F933F9388
:100A40008F939F93AF93BF9380913F01909140010B
:100A5000A0914101B091420130913E0123E0230F6A
:100A60002D3720F40196A11DB11D05C026E8230FE6
:100A70000296A11DB11D20933E0180933F019093EA
:100A80004001A0934101B0934201809143019091B4
:100A90004401A0914501B09146010196A11DB11DEF
:100AA0008093430190934401A0934501B093460184
:100AB000BF91AF919F918F913F912F910F900FBE5A
:100AC0000F901F901895EEE6F1E01382128288EEE7
:100AD00093E0A0E0B0E084839583A683B7838AE0A7
:100AE00091E09183808385EC90E09587848784EC06
:100AF00090E09787868780EC90E0918B808B81ECEB
:100B000090E0938B828B82EC90E0958B848B86ECCB
:100B100090E0978B868B118E128E138E148EEBE0E5
:100B2000F2E01682178210861186128613861486CA
:100B3000158616861786108A118A128A138A148AD5
:100B4000158AA3E5B2E082E015968C93159786E1AD
:100B500016968C931697E0EBF0E0E4911796EC93E1
:100B60001797ECE9F0E0E4911896EC93189740E8B9
:100B70005EE360E070E01D964D935D936D937C9312
:100B800050970895789484B5826084BD84B581605F
:100B900084BD85B5826085BD85B5816085BD809148
:100BA0006E00816080936E001092810080918100C0
:100BB00082608093810080918100816080938100B8
:100BC000809180008160809380008091B10084607A
:100BD0008093B1008091B00081608093B0008091DB
:100BE0007A00846080937A0080917A00826080939A
:100BF0007A0080917A00816080937A0080917A00F7
:100C0000806880937A001092C10010924F02109277
:100C10005002109251021092520210920D02109244
:100C20000E0210920F021092100268EB7BE080E03F
:100C300090E00E941B048EE691E090934E02809318
:100C40004D02E0917E01F0917F0182E08083E0918E
:100C50007A01F0917B011082E0917C01F0917D019D
:100C600080E1808310928601E0918201F0918301FE
:100C700086E08083E0918001F09181018081806134
:100C80008083E0918001F091810180818860808380
:100C9000E0918001F0918101808180688083E09102
:100CA0008001F091810180818F7D80830E941803F3
:100CB00060930D0270930E0280930F0290931002C6
:100CC00068E171E080914D0290914E020E94BD0456
:100CD0006AE070E080E090E00E941B0481E0809375
:100CE00021020E94180300910D0210910E02209122
:100CF0000F0230911002DC01CB01801B910BA20B83
:100D0000B30B82339105A105B10570F442E350E0C5
:100D100060E070E08A019B01081B190B2A0B3B0B5A
:100D2000C901B8010E941B040E94180360930D02C0
:100D300070930E0280930F02909310026AE271E0AA
:100D400080914D0290914E020E94BD0461E371E0DA
:100D500080914D0290914E020E94BD0461E371E0CA
:100D600080914D0290914E020E94BD0461E371E0BA
:100D700080914D0290914E020E94BD0461E371E0AA
:100D800080914D0290914E020E94BD0463E371E098
:100D900080914D0290914E020E94BD046AE070E085
:100DA00080E090E00E941B0462E0809158020E9463
:100DB000660280E398EFAFEFBFEF80935C02909301
:100DC0005D02A0935E02B0935F0261E085E00E9445
:100DD000660261E085E00E94360261E086E00E94E2
:100DE000660260E086E00E94360261E087E00E94D1
:100DF000660260E08EE00E94660260E088E00E9489
:100E0000660260E08AE00E94660260E089E00E947B
:100E1000660261E08FE00E94660261E080E10E946C
:100E2000660261E081E10E94660260914C0181E10D
:100E30000E94360261E082E10E946602332433940C
:100E4000C1E080E2C82E8FEBD82E82E0E82EF12C94
:100E500090EA892E9BEB992E9DE0A92EB12C0E9441
:100E6000180300916A0110916B0120916C0130917F
:100E70006D01DC01CB01801B910BA20BB30B8639FA
:100E80009105A105B10508F4D1C00E941803609333
:100E90006A0170936B0180936C0190936D0161E026
:100EA00070E080E090E00E941B040E9418036093B1
:100EB0000D0270930E0280930F02909310026AE26B
:100EC00071E080914D0290914E020E94BD0461E359
:100ED00071E080914D0290914E020E94BD04D0E0DD
:100EE000412C512C320110E020E0822F012E01C054
:100EF000880F0A94EAF7D82B1F5F183031F03DE0D5
:100F00004316510461047104A9F44D2F50E060E0D0
:100F100070E02AE080914D0290914E020E9474048C
:100F20006CE371E080914D0290914E020E94BD04ED
:100F300010E0D0E061E070E080E090E00E941B04EF
:100F40008FEF481A580A680A780A9EE04916510439
:100F50006104710471F021E04216510461047104CE
:100F600019F2842D0E940D0221E0892B09F0BDCFDA
:100F7000BBCF61E070E080E090E00E941B0461E381
:100F800071E080914D0290914E020E94BD04D0E02C
:100F90008D2F0E94A20200914D0210914E022C0151
:100FA000990F6608770877FE12C0D801ED91FC9181
:100FB0000190F081E02D6DE2C80109954427552785
:100FC000BA0144195509660977092AE003C02AE0E5
:100FD000B301A201C8010E9474046CE371E0809126
:100FE0004D0290914E020E94BD04DF5FD83081F621
:100FF00061E371E080914D0290914E020E94BD0428
:1010000061E371E080914D0290914E020E94BD0417
:1010100063E371E080914D0290914E020E94BD0405
:1010200061E070E080E090E00E941B040E941803E1
:1010300000914E0110914F012091500130915101CA
:10104000DC01CB01801B910BA20BB30B883C9105FB
:10105000A105B10508F403C18EE00E94A2029C0123
:10106000285E33402932310518F4C093470118C077
:101070009C01245F31402F31310518F4C0934801A1
:101080000FC09C012A5431402932310518F4C09315
:101090004B0106C08C5D9109CD9710F4C0934D01B2
:1010A0000E94180360934E0170934F01809350018A
:1010B0009093510180914D018823C9F110924D0107
:1010C00080914C01882331F01092630160E081E14E
:1010D0000E94360210924C0160E081E10E943602CB
:1010E00010916301D12FD325D09363016D2F8FE031
:1010F0000E94360210930501612F85E00E9436029E
:101100001092040160E086E00E943602DD2369F05F
:10111000C09368010E941803609364017093650195
:10112000809366019093670102C0109268018091DC
:101130004B01882369F110924B0180914C01882367
:1011400041F010924A0110924C0160E081E10E944E
:101150003602D0914A01D325D0934A016D2F80E108
:101160000E9436021092040160E086E00E9436027E
:10117000D0936901D0934901D1110AC080916801CF
:10118000811106C0C093050161E085E00E9436022E
:1011900080914801882309F448C0109248011092B8
:1011A00068011092690180914A01811103C0809108
:1011B0006301811110924C011092630160E08FE095
:1011C0000E94360210924A0160E080E10E943602DD
:1011D000D0914C01D325D0934C016D2F81E10E9419
:1011E0003602C093050161E085E0DD2331F00E9405
:1011F0003602C093040161E005C00E9436021092DD
:10120000040160E086E00E94360280914901882353
:1012100061F080914C01811108C0C0934A0161E0E6
:1012200080E10E943602C0936901809147018823C2
:10123000B1F01092470180915B0190915C01892B84
:1012400031F010925C0110925B011092610160918B
:10125000610163256093610182E10E94360289E0A9
:101260000E940D02892B69F480916201882349F064
:101270000E944204882329F080916101882309F4A7
:101280001BC10E94180300915D0110915E01209125
:101290005F0130916001DC01CB01801B910BA20B3F
:1012A000B30B89389341A105B10538F080915B01FA
:1012B00090915C01892B09F018C180916101811125
:1012C00075C088E00E940D02892B29F48AE00E94F3
:1012D0000D02892BF9F089E00E940D02892B71F42F
:1012E0000E94420481110CC10E94180360935201B4
:1012F0007093530180935401909355010E941803F9
:1013000060935701709358018093590190935A014B
:10131000C093620185E00E940D02892B49F48092FE
:10132000000190920101A0920201B092030108C055
:10133000C0920001D0920101E0920201F0920301FB
:101340000E941803009157011091580120915901F2
:1013500030915A01DC01CB01801B910BA20BB30B26
:1013600000910001109101012091020130910301CF
:10137000081719072A073B07C8F4809162018823E0
:10138000A9F089E00E940D02892B71F00E944204AD
:101390008111C3C00E9418036093520170935301DE
:1013A00080935401909355011092620180916801DD
:1013B000882349F10E94180300916401109165018E
:1013C0002091660130916701DC01CB01801B910BFC
:1013D000A20BB30B803C9742A940B105A0F0C0938B
:1013E000050161E085E00E9436021092040160E090
:1013F00086E00E9436021092630160E08FE00E9456
:1014000036021092680180916901882309F451C065
:101410008091680181114DC00E942403882399F1B5
:10142000809159028B3039F170F18551823058F535
:101430006091530270E080E090E00E949A0A20E000
:1014400030E040E853E40E94D70A2B013C01609150
:10145000540270E080E090E00E949C0A9B01AC0185
:10146000C301B2010E94B80B2DEC3CEC4CEC5DE3E7
:101470000E94D70A0CC06091530270E080E090E0B7
:101480000E949A0A04C060E070E080EC9FE70E942E
:10149000240C6734710524F01092050160E006C049
:1014A0006134710534F4C093050161E085E00E9468
:1014B00036020E94DA01D3CCC093610161E082E17F
:1014C0000E9436020E94180360935D0170935E01D2
:1014D00080935F019093600121E030E030935C01E4
:1014E00020935B0110926201CCCE10925C011092AD
:1014F0005B011092610160E082E10E943602DDCE64
:1015000087E00E940D0261E0892B09F060E06093A2
:10151000560187E00E943602E7CE87E00E940D0266
:1015200061E0892B09F060E06093560187E00E943A
:10153000360230CFE89409C097FB3EF49095809531
:10154000709561957F4F8F4F9F4F9923A9F0F92F89
:1015500096E9BB279395F695879577956795B79507
:10156000F111F8CFFAF4BB0F11F460FF1BC06F5FED
:101570007F4F8F4F9F4F16C0882311F096E911C0FF
:10158000772321F09EE8872F762F05C0662371F020
:1015900096E8862F70E060E02AF09A95660F771F34
:1015A000881FDAF7880F9695879597F908950E9416
:1015B000EA0A0C945B0B0E944D0B38F00E94540B0E
:1015C00020F0952311F00C94440B0C944A0B112439
:1015D0000C948F0B0E946C0B70F3959FC1F3950FC9
:1015E00050E0551F629FF001729FBB27F00DB11DA7
:1015F000639FAA27F00DB11DAA1F649F6627B00D37
:10160000A11D661F829F2227B00DA11D621F739F1F
:10161000B00DA11D621F839FA00D611D221F749F2D
:101620003327A00D611D231F849F600D211D822F74
:10163000762F6A2F11249F5750409AF0F1F088239B
:101640004AF0EE0FFF1FBB1F661F771F881F9150C8
:101650005040A9F79E3F510580F00C94440B0C9428
:101660008F0B5F3FE4F3983ED4F3869577956795AB
:10167000B795F795E7959F5FC1F7FE2B880F911DF2
:101680009695879597F9089597F99F6780E870E098
:1016900060E008959FEF80EC089500240A941616E8
:1016A000170618060906089500240A941216130650
:1016B000140605060895092E0394000C11F48823DE
:1016C00052F0BB0F40F4BF2B11F460FF04C06F5FFA
:1016D0007F4F8F4F9F4F089557FD9058440F551FD0
:1016E00059F05F3F71F04795880F97FB991F61F0A4
:1016F0009F3F79F087950895121613061406551F1B
:10170000F2CF4695F1DF08C0161617061806991F86
:10171000F1CF86957105610508940895E894BB277B
:1017200066277727CB0197F90895A1E21A2EAA1B05
:10173000BB1BFD010DC0AA1FBB1FEE1FFF1FA21781
:10174000B307E407F50720F0A21BB30BE40BF50B7E
:10175000661F771F881F991F1A9469F76095709507
:10176000809590959B01AC01BD01CF010895505823
:10177000BB27AA270E94CF0B0C945B0B0E944D0B3A
:1017800038F00E94540B20F039F49F3F19F426F4EE
:101790000C944A0B0EF4E095E7FB0C94440BE92FF4
:1017A0000E946C0B58F3BA176207730784079507FA
:1017B00020F079F4A6F50C948E0B0EF4E0950B2E28
:1017C000BA2FA02D0B01B90190010C01CA01A00193
:1017D0001124FF27591B99F0593F50F4503E68F1EE
:1017E0001A16F040A22F232F342F4427585FF3CF2F
:1017F000469537952795A795F0405395C9F77EF400
:101800001F16BA0B620B730B840BBAF09150A1F048
:10181000FF0FBB1F661F771F881FC2F70EC0BA0FCE
:10182000621F731F841F48F4879577956795B79556
:10183000F7959E3F08F0B0CF9395880F08F0992751
:10184000EE0F9795879508950E942B0C6894B1111F
:101850000C948F0B08950E94740B88F09F5798F09A
:10186000B92F9927B751B0F0E1F0660F771F881FA5
:10187000991F1AF0BA95C9F714C0B13091F00E94BF
:101880008E0BB1E008950C948E0B672F782F88276C
:10189000B85F39F0B93FCCF3869577956795B395E6
:1018A000D9F73EF490958095709561957F4F8F4F55
:1018B0009F4F0895EE0FFF1F0590F491E02D0994BE
:0E18C00081E090E0F8940C94650CF894FFCF52
:1018CE0060EA00000101000000007101DA00090168
:1018DE00B8013A0118012C01564D4450565F317C27
:1018EE00315F564D4450560D0A00564D4450525FCE
:0E18FE00007C005F564D4450520D0A003A0027
:107800000C94343C0C94513C0C94513C0C94513CE1
:107810000C94513C0C94513C0C94513C0C94513CB4
:107820000C94513C0C94513C0C94513C0C94513CA4
:107830000C94513C0C94513C0C94513C0C94513C94
:107840000C94513C0C94513C0C94513C0C94513C84
:107850000C94513C0C94513C0C94513C0C94513C74
:107860000C94513C0C94513C11241FBECFEFD8E036
:10787000DEBFCDBF11E0A0E0B1E0ECE9FFE702C060
:1078800005900D92A230B107D9F712E0A2E0B1E065
:1078900001C01D92AD30B107E1F70E942D3D0C945F
:1078A000CC3F0C94003C982F959595959595959582
:1078B000905D8F708A307CF0282F295A8091C0000B
:1078C00085FFFCCF9093C6008091C00085FFFCCF60
:1078D0002093C6000895282F205DF0CF982F809127
:1078E000C00085FFFCCF9093C6000895EF92FF92F1
:1078F0000F931F93EE24FF2487018091C00087FD22
:1079000017C00894E11CF11C011D111D81E4E8164B
:1079100082E4F8068FE0080780E0180770F3E09132
:107920000401F091050109958091C00087FFE9CF1E
:107930008091C6001F910F91FF90EF9008950E94D3
:10794000763C982F8091C00085FFFCCF9093C600B5
:1079500091362CF490330CF09053892F089597555D
:10796000892F08951F930E949F3C182F0E949F3CCF
:107970001295107F810F1F9108951F93182F882350
:1079800021F00E94763C1150E1F71F9108951F935A
:10799000182F0E94763C803249F0809103018F5F5E
:1079A000809303018530C1F01F9108958091C0003C
:1079B00085FFFCCF84E18093C6008091C00085FFE5
:1079C000FCCF1093C6008091C00085FFFCCF80E102
:1079D0008093C6001F910895E0910401F091050184
:1079E00009951F9108950E94763C803241F0809164
:1079F00003018F5F80930301853081F008958091AA
:107A0000C00085FFFCCF84E18093C6008091C00058
:107A100085FFFCCF80E18093C6000895E0910401CA
:107A2000F09105010995089540E951E08823A1F0FE
:107A30002D9A28EE33E0FA013197F1F721503040CA
:107A4000D1F72D9828EE33E0FA013197F1F7215064
:107A50003040D1F7815061F708953F924F925F9285
:107A60006F927F928F929F92AF92BF92CF92DF924E
:107A7000EF92FF920F931F93CF93DF93000080E16B
:107A80008093C4001092C50088E18093C10086E015
:107A90008093C2005098589A259A81E00E94143D24
:107AA00024E1F22E9EE1E92E85E9D82E0FE0C02ECA
:107AB00010E1B12EAA24A394B1E49B2EA6E58A2E50
:107AC000F2E57F2EE0E26E2E79E4572E63E5462E36
:107AD00050E5352E0E94763C8033B1F18133B9F107
:107AE000803409F46FC0813409F476C0823409F41B
:107AF00085C0853409F488C0803531F1823521F1A3
:107B0000813511F1853509F485C0863509F48DC0BC
:107B1000843609F496C0843709F403C1853709F423
:107B200072C1863709F466C0809103018F5F80932C
:107B30000301853079F6E0910401F0910501099582
:107B40000E94763C803351F60E94F33CC3CF0E94E2
:107B5000763C803249F78091C00085FFFCCFF092DF
:107B6000C6008091C00085FFFCCF9092C600809136
:107B7000C00085FFFCCF8092C6008091C00085FFC9
:107B8000FCCF7092C6008091C00085FFFCCF609250
:107B9000C6008091C00085FFFCCF5092C600809146
:107BA000C00085FFFCCF4092C6008091C00085FFD9
:107BB000FCCF3092C6008091C00085FFFCCFB09210
:107BC000C60088CF0E94763C863808F4BDCF0E945C
:107BD000763C0E94F33C7ECF0E94763C803809F4CC
:107BE0009CC0813809F40BC1823809F43CC1883942
:107BF00009F48FC080E00E94C73C6CCF84E10E94F2
:107C0000BD3C0E94F33C66CF85E00E94BD3C0E94D3
:107C1000F33C60CF0E94763C809306010E94763C44
:107C2000809307010E94F33C55CF0E94763C80333D
:107C300009F41DC183E00E94BD3C80E00E94C73C66
:107C400049CF0E94763C809309020E94763C809343
:107C5000080280910C028E7F80930C020E94763C79
:107C6000853409F415C18091080290910902892B8D
:107C700089F000E010E00E94763CF801E85FFE4FDA
:107C800080830F5F1F4F80910802909109020817AF
:107C9000190788F30E94763C803209F045CF809125
:107CA0000C0280FF01C16091060170910701660F0F
:107CB000771F7093070160930601A0910802B091AD
:107CC00009021097C9F0E8E0F1E09B01AD014E0F09
:107CD0005F1FF999FECF32BD21BD819180BDFA9A17
:107CE000F99A2F5F3F4FE417F50799F76A0F7B1F4B
:107CF00070930701609306018091C00085FFFCCF5F
:107D0000F092C6008091C00085FFFCCFB092C60003
:107D1000E1CE83E00E94C73CDDCE82E00E94C73CFA
:107D2000D9CE0E94763C809309020E94763C8093D3
:107D300008028091060190910701880F991F909386
:107D40000701809306010E94763C853409F4A6C0A1
:107D500080910C028E7F80930C020E94763C8032D0
:107D600009F0B8CE8091C00085FFFCCFF092C6002C
:107D7000609108027091090261157105B9F140E046
:107D800050E080910C02A82FA170B82FB27011C0E2
:107D9000BB2309F45CC0E0910601F0910701319624
:107DA000F0930701E09306014F5F5F4F46175707B7
:107DB000E8F4AA2369F3F999FECF209106013091E6
:107DC000070132BD21BDF89A90B58091C00085FFB2
:107DD000FCCF9093C6002F5F3F4F30930701209355
:107DE00006014F5F5F4F4617570718F38091C00099
:107DF00085FDE5CE8091C00085FFF8CFE0CE81E023
:107E00000E94C73C67CE0E94763C803209F08CCE3F
:107E10008091C00085FFFCCFF092C6008091C00029
:107E200085FFFCCFE092C6008091C00085FFFCCFAB
:107E3000D092C6008091C00085FFFCCFC092C600E2
:107E40008091C00085FFFCCFB092C60043CEE09188
:107E50000601F091070194918091C00085FFFCCF4D
:107E60009093C6009CCF80E10E94C73C33CE0E9415
:107E7000763C0E94763C182F0E94763C112309F430
:107E800083C0113009F484C08FE00E94C73C22CE29
:107E900080910C02816080930C02E5CE80910C02EF
:107EA000816080930C0259CF809107018823880F4D
:107EB000880B8A2180930B02809106019091070123
:107EC000880F991F90930701809306018091080203
:107ED00080FF09C080910802909109020196909359
:107EE000090280930802F894F999FECF1127E091D6
:107EF0000601F0910701C8E0D1E08091080290915D
:107F00000902103091F40091570001700130D9F34B
:107F100003E000935700E89500915700017001308D
:107F2000D9F301E100935700E89509901990009169
:107F3000570001700130D9F301E000935700E89534
:107F40001395103498F011270091570001700130FB
:107F5000D9F305E000935700E895009157000170B0
:107F60000130D9F301E100935700E895329602976A
:107F700009F0C7CF103011F00296E5CF112480919F
:107F8000C00085FFB9CEBCCE8EE10E94C73CA2CD19
:0C7F900085E90E94C73C9ECDF894FFCF0D
:027F9C00800063
:040000030000780081
:00000001FF